{
  "contractName": "Betting",
  "abi": [
    {
      "inputs": [
        {
          "internalType": "address",
          "name": "tokenAddress",
          "type": "address"
        },
        {
          "internalType": "address",
          "name": "_oracle",
          "type": "address"
        }
      ],
      "stateMutability": "nonpayable",
      "type": "constructor"
    },
    {
      "inputs": [
        {
          "internalType": "string",
          "name": "",
          "type": "string"
        },
        {
          "internalType": "bool",
          "name": "",
          "type": "bool"
        }
      ],
      "name": "bet_totals",
      "outputs": [
        {
          "internalType": "uint256",
          "name": "",
          "type": "uint256"
        }
      ],
      "stateMutability": "view",
      "type": "function",
      "constant": true
    },
    {
      "inputs": [
        {
          "internalType": "address",
          "name": "",
          "type": "address"
        },
        {
          "internalType": "string",
          "name": "",
          "type": "string"
        }
      ],
      "name": "bets_by_bettor",
      "outputs": [
        {
          "internalType": "address",
          "name": "bettor",
          "type": "address"
        },
        {
          "internalType": "uint256",
          "name": "staked",
          "type": "uint256"
        },
        {
          "internalType": "string",
          "name": "gameID",
          "type": "string"
        },
        {
          "internalType": "bool",
          "name": "home",
          "type": "bool"
        }
      ],
      "stateMutability": "view",
      "type": "function",
      "constant": true
    },
    {
      "inputs": [],
      "name": "oracle",
      "outputs": [
        {
          "internalType": "address",
          "name": "",
          "type": "address"
        }
      ],
      "stateMutability": "view",
      "type": "function",
      "constant": true
    },
    {
      "inputs": [
        {
          "internalType": "string",
          "name": "gameID",
          "type": "string"
        }
      ],
      "name": "getBets",
      "outputs": [
        {
          "internalType": "uint256",
          "name": "",
          "type": "uint256"
        },
        {
          "internalType": "uint256",
          "name": "",
          "type": "uint256"
        }
      ],
      "stateMutability": "view",
      "type": "function",
      "constant": true
    },
    {
      "inputs": [
        {
          "internalType": "string",
          "name": "gameID",
          "type": "string"
        },
        {
          "internalType": "bool",
          "name": "home",
          "type": "bool"
        }
      ],
      "name": "placeBet",
      "outputs": [],
      "stateMutability": "payable",
      "type": "function",
      "payable": true
    },
    {
      "inputs": [
        {
          "internalType": "string",
          "name": "gameID",
          "type": "string"
        }
      ],
      "name": "withdrawGain",
      "outputs": [],
      "stateMutability": "nonpayable",
      "type": "function"
    },
    {
      "inputs": [
        {
          "internalType": "string",
          "name": "gameID",
          "type": "string"
        },
        {
          "internalType": "bool",
          "name": "home",
          "type": "bool"
        }
      ],
      "name": "reportResult",
      "outputs": [],
      "stateMutability": "nonpayable",
      "type": "function"
    }
  ],
  "bytecode": "0x60806040523480156200001157600080fd5b5060405162001602380380620016028339818101604052810190620000379190620000e9565b806000806101000a81548173ffffffffffffffffffffffffffffffffffffffff021916908373ffffffffffffffffffffffffffffffffffffffff160217905550505062000130565b600080fd5b600073ffffffffffffffffffffffffffffffffffffffff82169050919050565b6000620000b18262000084565b9050919050565b620000c381620000a4565b8114620000cf57600080fd5b50565b600081519050620000e381620000b8565b92915050565b600080604083850312156200010357620001026200007f565b5b60006200011385828601620000d2565b92505060206200012685828601620000d2565b9150509250929050565b6114c280620001406000396000f3fe6080604052600436106100705760003560e01c80637dc0d1d01161004e5780637dc0d1d014610119578063b99f0db014610144578063c215aa8414610160578063c3432fa3146101a057610070565b806329655d8a146100755780635f559af8146100b25780636b46dadc146100db575b600080fd5b34801561008157600080fd5b5061009c60048036038101906100979190610b9a565b6101c9565b6040516100a99190610c0f565b60405180910390f35b3480156100be57600080fd5b506100d960048036038101906100d49190610b9a565b610204565b005b3480156100e757600080fd5b5061010260048036038101906100fd9190610c2a565b610303565b604051610110929190610c73565b60405180910390f35b34801561012557600080fd5b5061012e6103ea565b60405161013b9190610cdd565b60405180910390f35b61015e60048036038101906101599190610b9a565b61040e565b005b34801561016c57600080fd5b5061018760048036038101906101829190610d24565b6105ec565b6040516101979493929190610e0e565b60405180910390f35b3480156101ac57600080fd5b506101c760048036038101906101c29190610c2a565b6106f4565b005b600182805160208101820180518482526020830160208501208183528095505050505050602052806000526040600020600091509150505481565b3373ffffffffffffffffffffffffffffffffffffffff1660008054906101000a900473ffffffffffffffffffffffffffffffffffffffff1673ffffffffffffffffffffffffffffffffffffffff1614610292576040517f08c379a000000000000000000000000000000000000000000000000000000000815260040161028990610ecc565b60405180910390fd5b60016003836040516102a49190610f28565b908152602001604051809103902060006101000a81548160ff021916908315150217905550806002836040516102da9190610f28565b908152602001604051809103902060006101000a81548160ff0219169083151502179055505050565b6000806000151560038460405161031a9190610f28565b908152602001604051809103902060009054906101000a900460ff16151514610378576040517f08c379a000000000000000000000000000000000000000000000000000000000815260040161036f90610fb1565b60405180910390fd5b6001836040516103889190610f28565b908152602001604051809103902060006001151515158152602001908152602001600020546001846040516103bd9190610f28565b90815260200160405180910390206000801515151581526020019081526020016000205491509150915091565b60008054906101000a900473ffffffffffffffffffffffffffffffffffffffff1681565b600015156003836040516104229190610f28565b908152602001604051809103902060009054906101000a900460ff16151514610480576040517f08c379a00000000000000000000000000000000000000000000000000000000081526004016104779061101d565b60405180910390fd5b60405180608001604052803373ffffffffffffffffffffffffffffffffffffffff168152602001348152602001838152602001821515815250600460003373ffffffffffffffffffffffffffffffffffffffff1673ffffffffffffffffffffffffffffffffffffffff168152602001908152602001600020836040516105069190610f28565b908152602001604051809103902060008201518160000160006101000a81548173ffffffffffffffffffffffffffffffffffffffff021916908373ffffffffffffffffffffffffffffffffffffffff16021790555060208201518160010155604082015181600201908161057a9190611249565b5060608201518160030160006101000a81548160ff021916908315150217905550905050346001836040516105af9190610f28565b908152602001604051809103902060008315151515815260200190815260200160002060008282546105e1919061134a565b925050819055505050565b600460205281600052604060002081805160208101820180518482526020830160208501208183528095505050505050600091509150508060000160009054906101000a900473ffffffffffffffffffffffffffffffffffffffff169080600101549080600201805461065e9061106c565b80601f016020809104026020016040519081016040528092919081815260200182805461068a9061106c565b80156106d75780601f106106ac576101008083540402835291602001916106d7565b820191906000526020600020905b8154815290600101906020018083116106ba57829003601f168201915b5050505050908060030160009054906101000a900460ff16905084565b600115156003826040516107089190610f28565b908152602001604051809103902060009054906101000a900460ff16151514610766576040517f08c379a000000000000000000000000000000000000000000000000000000000815260040161075d906113ca565b60405180910390fd5b60006002826040516107789190610f28565b908152602001604051809103902060009054906101000a900460ff1690506000600460003373ffffffffffffffffffffffffffffffffffffffff1673ffffffffffffffffffffffffffffffffffffffff168152602001908152602001600020836040516107e59190610f28565b90815260200160405180910390206040518060800160405290816000820160009054906101000a900473ffffffffffffffffffffffffffffffffffffffff1673ffffffffffffffffffffffffffffffffffffffff1673ffffffffffffffffffffffffffffffffffffffff1681526020016001820154815260200160028201805461086e9061106c565b80601f016020809104026020016040519081016040528092919081815260200182805461089a9061106c565b80156108e75780601f106108bc576101008083540402835291602001916108e7565b820191906000526020600020905b8154815290600101906020018083116108ca57829003601f168201915b505050505081526020016003820160009054906101000a900460ff1615151515815250509050600082151582606001511515036109b65760018460405161092e9190610f28565b90815260200160405180910390206000841515151581526020019081526020016000205482602001516001866040516109679190610f28565b9081526020016040518091039020600086151515151581526020019081526020016000205461099691906113ea565b6109a0919061145b565b82602001516109af919061134a565b90506109bb565b600090505b3373ffffffffffffffffffffffffffffffffffffffff166108fc829081150290604051600060405180830381858888f19350505050158015610a01573d6000803e3d6000fd5b5050505050565b6000604051905090565b600080fd5b600080fd5b600080fd5b600080fd5b6000601f19601f8301169050919050565b7f4e487b7100000000000000000000000000000000000000000000000000000000600052604160045260246000fd5b610a6f82610a26565b810181811067ffffffffffffffff82111715610a8e57610a8d610a37565b5b80604052505050565b6000610aa1610a08565b9050610aad8282610a66565b919050565b600067ffffffffffffffff821115610acd57610acc610a37565b5b610ad682610a26565b9050602081019050919050565b82818337600083830152505050565b6000610b05610b0084610ab2565b610a97565b905082815260208101848484011115610b2157610b20610a21565b5b610b2c848285610ae3565b509392505050565b600082601f830112610b4957610b48610a1c565b5b8135610b59848260208601610af2565b91505092915050565b60008115159050919050565b610b7781610b62565b8114610b8257600080fd5b50565b600081359050610b9481610b6e565b92915050565b60008060408385031215610bb157610bb0610a12565b5b600083013567ffffffffffffffff811115610bcf57610bce610a17565b5b610bdb85828601610b34565b9250506020610bec85828601610b85565b9150509250929050565b6000819050919050565b610c0981610bf6565b82525050565b6000602082019050610c246000830184610c00565b92915050565b600060208284031215610c4057610c3f610a12565b5b600082013567ffffffffffffffff811115610c5e57610c5d610a17565b5b610c6a84828501610b34565b91505092915050565b6000604082019050610c886000830185610c00565b610c956020830184610c00565b9392505050565b600073ffffffffffffffffffffffffffffffffffffffff82169050919050565b6000610cc782610c9c565b9050919050565b610cd781610cbc565b82525050565b6000602082019050610cf26000830184610cce565b92915050565b610d0181610cbc565b8114610d0c57600080fd5b50565b600081359050610d1e81610cf8565b92915050565b60008060408385031215610d3b57610d3a610a12565b5b6000610d4985828601610d0f565b925050602083013567ffffffffffffffff811115610d6a57610d69610a17565b5b610d7685828601610b34565b9150509250929050565b600081519050919050565b600082825260208201905092915050565b60005b83811015610dba578082015181840152602081019050610d9f565b60008484015250505050565b6000610dd182610d80565b610ddb8185610d8b565b9350610deb818560208601610d9c565b610df481610a26565b840191505092915050565b610e0881610b62565b82525050565b6000608082019050610e236000830187610cce565b610e306020830186610c00565b8181036040830152610e428185610dc6565b9050610e516060830184610dff565b95945050505050565b7f4f6e6c7920746865204f7261636c652063616e2063616c6c207468697320667560008201527f6e6374696f6e0000000000000000000000000000000000000000000000000000602082015250565b6000610eb6602683610d8b565b9150610ec182610e5a565b604082019050919050565b60006020820190508181036000830152610ee581610ea9565b9050919050565b600081905092915050565b6000610f0282610d80565b610f0c8185610eec565b9350610f1c818560208601610d9c565b80840191505092915050565b6000610f348284610ef7565b915081905092915050565b7f5468652067616d65206973206f766572206f7220646f65736e2774206578697360008201527f7400000000000000000000000000000000000000000000000000000000000000602082015250565b6000610f9b602183610d8b565b9150610fa682610f3f565b604082019050919050565b60006020820190508181036000830152610fca81610f8e565b9050919050565b7f5468652067616d65206973206f76657200000000000000000000000000000000600082015250565b6000611007601083610d8b565b915061101282610fd1565b602082019050919050565b6000602082019050818103600083015261103681610ffa565b9050919050565b7f4e487b7100000000000000000000000000000000000000000000000000000000600052602260045260246000fd5b6000600282049050600182168061108457607f821691505b6020821081036110975761109661103d565b5b50919050565b60008190508160005260206000209050919050565b60006020601f8301049050919050565b600082821b905092915050565b6000600883026110ff7fffffffffffffffffffffffffffffffffffffffffffffffffffffffffffffffff826110c2565b61110986836110c2565b95508019841693508086168417925050509392505050565b6000819050919050565b600061114661114161113c84610bf6565b611121565b610bf6565b9050919050565b6000819050919050565b6111608361112b565b61117461116c8261114d565b8484546110cf565b825550505050565b600090565b61118961117c565b611194818484611157565b505050565b5b818110156111b8576111ad600082611181565b60018101905061119a565b5050565b601f8211156111fd576111ce8161109d565b6111d7846110b2565b810160208510156111e6578190505b6111fa6111f2856110b2565b830182611199565b50505b505050565b600082821c905092915050565b600061122060001984600802611202565b1980831691505092915050565b6000611239838361120f565b9150826002028217905092915050565b61125282610d80565b67ffffffffffffffff81111561126b5761126a610a37565b5b611275825461106c565b6112808282856111bc565b600060209050601f8311600181146112b357600084156112a1578287015190505b6112ab858261122d565b865550611313565b601f1984166112c18661109d565b60005b828110156112e9578489015182556001820191506020850194506020810190506112c4565b868310156113065784890151611302601f89168261120f565b8355505b6001600288020188555050505b505050505050565b7f4e487b7100000000000000000000000000000000000000000000000000000000600052601160045260246000fd5b600061135582610bf6565b915061136083610bf6565b92508282019050808211156113785761137761131b565b5b92915050565b7f5468652067616d65206861736e27742068617070656e65642079657400000000600082015250565b60006113b4601c83610d8b565b91506113bf8261137e565b602082019050919050565b600060208201905081810360008301526113e3816113a7565b9050919050565b60006113f582610bf6565b915061140083610bf6565b925082820261140e81610bf6565b915082820484148315176114255761142461131b565b5b5092915050565b7f4e487b7100000000000000000000000000000000000000000000000000000000600052601260045260246000fd5b600061146682610bf6565b915061147183610bf6565b9250826114815761148061142c565b5b82820490509291505056fea26469706673582212202d719f1f360cb7c48b9cc359368284d752e017d171b7923be941db0292ea32fb64736f6c63430008120033",
  "immutableReferences": {},
  "source": "// SPDX-License-Identifier: MIT\npragma solidity >=0.4.22 <0.9.0;\n\ncontract Betting {\n        address public oracle;\n        \n        mapping(string => mapping(bool => uint256)) public bet_totals;\n        // True in the case the home team wins, false in case of away\n        mapping(string => bool) private results; \n        // True in case that the game has been finished, false otherwise\n        mapping(string => bool) private game_finished;\n        mapping(address => mapping(string => Bet)) public bets_by_bettor;\n        \n\n        // constructor\n        constructor (address tokenAddress, address _oracle) {\n                oracle = _oracle;\n        }\n\n        struct Bet {\n                // represents address of person making bet\n                address bettor;\n                // represents the amount staked\n                uint256 staked;\n                // represents the game that is being bet on\n                string gameID;\n                // True if the bettor bet on the home team, false otherwise\n                bool home;\n        }\n\n        function getBets (string memory gameID) public view returns (uint256, uint256) {\n                require(game_finished[gameID] == false, \"The game is over or doesn't exist\");\n                return (bet_totals[gameID][true], bet_totals[gameID][false]);\n        }\n\n        function placeBet (string memory gameID, bool home) external payable{\n                // confirm that the game hasn't happened already\n                require(game_finished[gameID] == false, \"The game is over\");\n                // flaw: this only allows the user to bet one side of the game\n                bets_by_bettor[msg.sender][gameID] = \n                        Bet(msg.sender, msg.value, gameID, home);\n                bet_totals[gameID][home] += msg.value;\n        }\n\n        function withdrawGain (string memory gameID) external {\n                // confirm that the game has already happened\n                require(game_finished[gameID] == true, \"The game hasn't happened yet\");\n                \n                bool winner = results[gameID];\n                Bet memory bet = bets_by_bettor[msg.sender][gameID];\n                // amount that the bettor wins\n                uint256 win_amount = 0;\n                if (bet.home == winner){\n                        win_amount = bet.staked + bet_totals[gameID][!winner] * bet.staked / bet_totals[gameID][winner];\n                }\n                else {\n                        win_amount = 0;\n                }\n                payable(msg.sender).transfer(win_amount);\n        }\n\n        function reportResult(string memory gameID, bool home) external {\n                require(oracle == msg.sender, \"Only the Oracle can call this function\");\n                game_finished[gameID] = true;\n                results[gameID] = home;\n        }\n}",
  "sourcePath": "/Users/jackstanley/Documents/VSCode/COS471/final-project/Smart Contracts/contracts/Betting.sol",
  "compiler": {
    "name": "solc",
    "version": "0.8.18+commit.87f61d96.Emscripten.clang"
  },
  "schemaVersion": "3.4.12",
  "updatedAt": "2023-05-04T21:21:36.166Z",
  "networkType": "ethereum",
  "devdoc": {
    "kind": "dev",
    "methods": {},
    "version": 1
  },
  "userdoc": {
    "kind": "user",
    "methods": {},
    "version": 1
  }
}