{
	"data": {
		"bytecode": {
			"linkReferences": {},
			"object": "608060405260016004553480156200001657600080fd5b50604051620032a7380380620032a783398181016040528101906200003c919062000443565b338060008073ffffffffffffffffffffffffffffffffffffffff168273ffffffffffffffffffffffffffffffffffffffff1603620000b1576040517f08c379a0000000000000000000000000000000000000000000000000000000008152600401620000a890620004d6565b60405180910390fd5b81600660006101000a81548173ffffffffffffffffffffffffffffffffffffffff021916908373ffffffffffffffffffffffffffffffffffffffff160217905550600073ffffffffffffffffffffffffffffffffffffffff168173ffffffffffffffffffffffffffffffffffffffff1614620001395762000138816200022060201b60201c565b5b50505080600860006101000a81548173ffffffffffffffffffffffffffffffffffffffff021916908373ffffffffffffffffffffffffffffffffffffffff160217905550620001a273779877a7b0d9e8603169ddbd7836e478b46247896200035160201b60201c565b620001c7736090149792daaee9d1d568c9f9a6f6b46aa29efd6200039560201b60201c565b7f6331633565393238383038393465623662323764336361653139363730616133600f81905550600a670de0b6b3a7640000600162000207919062000531565b620002139190620005ab565b6010819055505062000655565b3373ffffffffffffffffffffffffffffffffffffffff168173ffffffffffffffffffffffffffffffffffffffff160362000291576040517f08c379a0000000000000000000000000000000000000000000000000000000008152600401620002889062000633565b60405180910390fd5b80600760006101000a81548173ffffffffffffffffffffffffffffffffffffffff021916908373ffffffffffffffffffffffffffffffffffffffff1602179055508073ffffffffffffffffffffffffffffffffffffffff16600660009054906101000a900473ffffffffffffffffffffffffffffffffffffffff1673ffffffffffffffffffffffffffffffffffffffff167fed8889f560326eb138920d842192f0eb3dd22b4f139c87a2c57538e05bae127860405160405180910390a350565b80600260006101000a81548173ffffffffffffffffffffffffffffffffffffffff021916908373ffffffffffffffffffffffffffffffffffffffff16021790555050565b80600360006101000a81548173ffffffffffffffffffffffffffffffffffffffff021916908373ffffffffffffffffffffffffffffffffffffffff16021790555050565b600080fd5b600073ffffffffffffffffffffffffffffffffffffffff82169050919050565b60006200040b82620003de565b9050919050565b6200041d81620003fe565b81146200042957600080fd5b50565b6000815190506200043d8162000412565b92915050565b6000602082840312156200045c576200045b620003d9565b5b60006200046c848285016200042c565b91505092915050565b600082825260208201905092915050565b7f43616e6e6f7420736574206f776e657220746f207a65726f0000000000000000600082015250565b6000620004be60188362000475565b9150620004cb8262000486565b602082019050919050565b60006020820190508181036000830152620004f181620004af565b9050919050565b6000819050919050565b7f4e487b7100000000000000000000000000000000000000000000000000000000600052601160045260246000fd5b60006200053e82620004f8565b91506200054b83620004f8565b92508282026200055b81620004f8565b9150828204841483151762000575576200057462000502565b5b5092915050565b7f4e487b7100000000000000000000000000000000000000000000000000000000600052601260045260246000fd5b6000620005b882620004f8565b9150620005c583620004f8565b925082620005d857620005d76200057c565b5b828204905092915050565b7f43616e6e6f74207472616e7366657220746f2073656c66000000000000000000600082015250565b60006200061b60178362000475565b91506200062882620005e3565b602082019050919050565b600060208201905081810360008301526200064e816200060c565b9050919050565b612c4280620006656000396000f3fe6080604052600436106100c25760003560e01c80638da5cb5b1161007f578063bda71d0411610059578063bda71d0414610272578063c618a1e41461029b578063c8d34c78146102c6578063f2fde38b14610303576100c2565b80638da5cb5b146102025780638dfcb01d1461022d5780639ed9c74d14610256576100c2565b80630205becd146100c75780631ccf695514610104578063643e8f071461014257806379ba5097146101835780637dc0d1d01461019a578063811862b7146101c5575b600080fd5b3480156100d357600080fd5b506100ee60048036038101906100e99190611db5565b61032c565b6040516100fb9190611e36565b60405180910390f35b34801561011057600080fd5b5061012b60048036038101906101269190611e51565b61037a565b604051610139929190611e8d565b60405180910390f35b34801561014e57600080fd5b5061016960048036038101906101649190611ee2565b610440565b60405161017a959493929190611f3d565b60405180910390f35b34801561018f57600080fd5b506101986104cd565b005b3480156101a657600080fd5b506101af610664565b6040516101bc9190611e36565b60405180910390f35b3480156101d157600080fd5b506101ec60048036038101906101e79190611e51565b61068a565b6040516101f99190611fa9565b60405180910390f35b34801561020e57600080fd5b5061021761076b565b6040516102249190611e36565b60405180910390f35b34801561023957600080fd5b50610254600480360381019061024f9190611ff0565b610795565b005b610270600480360381019061026b9190611ff0565b610880565b005b34801561027e57600080fd5b5061029960048036038101906102949190612092565b610ae5565b005b3480156102a757600080fd5b506102b0610d05565b6040516102bd91906120d2565b60405180910390f35b3480156102d257600080fd5b506102ed60048036038101906102e89190611ff0565b610d0b565b6040516102fa91906120d2565b60405180910390f35b34801561030f57600080fd5b5061032a600480360381019061032591906120ed565b610d30565b005b600d602052816000526040600020818154811061034857600080fd5b906000526020600020016000915091509054906101000a900473ffffffffffffffffffffffffffffffffffffffff1681565b60008060001515600b600085815260200190815260200160002060009054906101000a900460ff161515146103e4576040517f08c379a00000000000000000000000000000000000000000000000000000000081526004016103db9061219d565b60405180910390fd5b600960008481526020019081526020016000206000600115151515815260200190815260200160002054600960008581526020019081526020016000206000801515151581526020019081526020016000205491509150915091565b600c602052816000526040600020818154811061045c57600080fd5b9060005260206000209060040201600091509150508060000160009054906101000a900473ffffffffffffffffffffffffffffffffffffffff16908060010154908060020154908060030160009054906101000a900460ff16908060030160019054906101000a900460ff16905085565b600760009054906101000a900473ffffffffffffffffffffffffffffffffffffffff1673ffffffffffffffffffffffffffffffffffffffff163373ffffffffffffffffffffffffffffffffffffffff161461055d576040517f08c379a000000000000000000000000000000000000000000000000000000000815260040161055490612209565b60405180910390fd5b6000600660009054906101000a900473ffffffffffffffffffffffffffffffffffffffff16905033600660006101000a81548173ffffffffffffffffffffffffffffffffffffffff021916908373ffffffffffffffffffffffffffffffffffffffff1602179055506000600760006101000a81548173ffffffffffffffffffffffffffffffffffffffff021916908373ffffffffffffffffffffffffffffffffffffffff1602179055503373ffffffffffffffffffffffffffffffffffffffff168173ffffffffffffffffffffffffffffffffffffffff167f8be0079c531659141344cd1fd0a4f28419497f9722a3daafe3b4186f6b6457e060405160405180910390a350565b600860009054906101000a900473ffffffffffffffffffffffffffffffffffffffff1681565b6000806106a1600f543063bda71d0460e01b610d44565b90506107056040518060400160405280600381526020017f67657400000000000000000000000000000000000000000000000000000000008152506040518060600160405280602e8152602001612bdf602e913983610d759092919063ffffffff16565b6107576040518060400160405280600281526020017f696400000000000000000000000000000000000000000000000000000000000081525061074785610da8565b83610d759092919063ffffffff16565b61076381601054610e76565b915050919050565b6000600660009054906101000a900473ffffffffffffffffffffffffffffffffffffffff16905090565b3373ffffffffffffffffffffffffffffffffffffffff16600860009054906101000a900473ffffffffffffffffffffffffffffffffffffffff1673ffffffffffffffffffffffffffffffffffffffff1614610825576040517f08c379a000000000000000000000000000000000000000000000000000000000815260040161081c9061229b565b60405180910390fd5b6001600b600084815260200190815260200160002060006101000a81548160ff02191690831515021790555080600a600084815260200190815260200160002060006101000a81548160ff0219169083151502179055505050565b60001515600b600084815260200190815260200160002060009054906101000a900460ff161515146108e7576040517f08c379a00000000000000000000000000000000000000000000000000000000081526004016108de90612307565b60405180910390fd5b600c60003373ffffffffffffffffffffffffffffffffffffffff1673ffffffffffffffffffffffffffffffffffffffff1681526020019081526020016000206040518060a001604052803373ffffffffffffffffffffffffffffffffffffffff168152602001348152602001848152602001831515815260200160011515815250908060018154018082558091505060019003906000526020600020906004020160009091909190915060008201518160000160006101000a81548173ffffffffffffffffffffffffffffffffffffffff021916908373ffffffffffffffffffffffffffffffffffffffff160217905550602082015181600101556040820151816002015560608201518160030160006101000a81548160ff02191690831515021790555060808201518160030160016101000a81548160ff021916908315150217905550505034600960008481526020019081526020016000206000831515151581526020019081526020016000206000828254610a669190612356565b92505081905550600d6000838152602001908152602001600020339080600181540180825580915050600190039060005260206000200160009091909190916101000a81548173ffffffffffffffffffffffffffffffffffffffff021916908373ffffffffffffffffffffffffffffffffffffffff1602179055505050565b816005600082815260200190815260200160002060009054906101000a900473ffffffffffffffffffffffffffffffffffffffff1673ffffffffffffffffffffffffffffffffffffffff163373ffffffffffffffffffffffffffffffffffffffff1614610b87576040517f08c379a0000000000000000000000000000000000000000000000000000000008152600401610b7e906123fc565b60405180910390fd5b6005600082815260200190815260200160002060006101000a81549073ffffffffffffffffffffffffffffffffffffffff0219169055807f7cc135e0cebb02c3480ae5d74d377283180a2601f8f644edf7987b009316c63a60405160405180910390a26000820315610d00576000821215610c955760007fffffffffffffffffffffffffffffffffffffffffffffffffffffffffffffffff83610c2a919061241c565b90506001600b600083815260200190815260200160002060006101000a81548160ff0219169083151502179055506000600a600083815260200190815260200160002060006101000a81548160ff021916908315150217905550610c8f816000610ead565b50610cff565b60008290506001600b600083815260200190815260200160002060006101000a81548160ff0219169083151502179055506001600a600083815260200190815260200160002060006101000a81548160ff021916908315150217905550610cfd816001610ead565b505b5b505050565b600e5481565b6009602052816000526040600020602052806000526040600020600091509150505481565b610d386111fb565b610d418161128d565b50565b610d4c611caa565b610d54611caa565b610d6b858585846113bb909392919063ffffffff16565b9150509392505050565b610d8c82846080015161146b90919063ffffffff16565b610da381846080015161146b90919063ffffffff16565b505050565b606060006001610db784611490565b01905060008167ffffffffffffffff811115610dd657610dd5612494565b5b6040519080825280601f01601f191660200182016040528015610e085781602001600182028036833780820191505090505b509050600082602001820190505b600115610e6b578080600190039150507f3031323334353637383961626364656600000000000000000000000000000000600a86061a8153600a8581610e5f57610e5e6124c3565b5b04945060008503610e16575b819350505050919050565b6000610ea5600360009054906101000a900473ffffffffffffffffffffffffffffffffffffffff1684846115e3565b905092915050565b610eb5611d17565b60005b600d6000858152602001908152602001600020805490508110156111f5576000600d60008681526020019081526020016000208281548110610efd57610efc6124f2565b5b9060005260206000200160009054906101000a900473ffffffffffffffffffffffffffffffffffffffff16905060005b600c60008373ffffffffffffffffffffffffffffffffffffffff1673ffffffffffffffffffffffffffffffffffffffff168152602001908152602001600020805490508110156111005785600c60008473ffffffffffffffffffffffffffffffffffffffff1673ffffffffffffffffffffffffffffffffffffffff1681526020019081526020016000208281548110610fc957610fc86124f2565b5b906000526020600020906004020160020154036110ed57600c60008373ffffffffffffffffffffffffffffffffffffffff1673ffffffffffffffffffffffffffffffffffffffff1681526020019081526020016000208181548110611031576110306124f2565b5b90600052602060002090600402016040518060a00160405290816000820160009054906101000a900473ffffffffffffffffffffffffffffffffffffffff1673ffffffffffffffffffffffffffffffffffffffff1673ffffffffffffffffffffffffffffffffffffffff16815260200160018201548152602001600282015481526020016003820160009054906101000a900460ff161515151581526020016003820160019054906101000a900460ff16151515158152505093505b80806110f890612521565b915050610f2d565b506000841515846060015115150361119457600960008781526020019081526020016000206000861515151581526020019081526020016000205484602001516009600089815260200190815260200160002060008815151515158152602001908152602001600020546111749190612569565b61117e91906125ab565b846020015161118d9190612356565b9050611199565b600090505b8173ffffffffffffffffffffffffffffffffffffffff166108fc829081150290604051600060405180830381858888f193505050501580156111df573d6000803e3d6000fd5b50505080806111ed90612521565b915050610eb8565b50505050565b600660009054906101000a900473ffffffffffffffffffffffffffffffffffffffff1673ffffffffffffffffffffffffffffffffffffffff163373ffffffffffffffffffffffffffffffffffffffff161461128b576040517f08c379a000000000000000000000000000000000000000000000000000000000815260040161128290612628565b60405180910390fd5b565b3373ffffffffffffffffffffffffffffffffffffffff168173ffffffffffffffffffffffffffffffffffffffff16036112fb576040517f08c379a00000000000000000000000000000000000000000000000000000000081526004016112f290612694565b60405180910390fd5b80600760006101000a81548173ffffffffffffffffffffffffffffffffffffffff021916908373ffffffffffffffffffffffffffffffffffffffff1602179055508073ffffffffffffffffffffffffffffffffffffffff16600660009054906101000a900473ffffffffffffffffffffffffffffffffffffffff1673ffffffffffffffffffffffffffffffffffffffff167fed8889f560326eb138920d842192f0eb3dd22b4f139c87a2c57538e05bae127860405160405180910390a350565b6113c3611caa565b6113d385608001516101006116af565b508385600001818152505082856020019073ffffffffffffffffffffffffffffffffffffffff16908173ffffffffffffffffffffffffffffffffffffffff16815250508185604001907bffffffffffffffffffffffffffffffffffffffffffffffffffffffff191690817bffffffffffffffffffffffffffffffffffffffffffffffffffffffff191681525050849050949350505050565b6114788260038351611719565b61148b818361189e90919063ffffffff16565b505050565b600080600090507a184f03e93ff9f4daa797ed6e38ed64bf6a1f01000000000000000083106114ee577a184f03e93ff9f4daa797ed6e38ed64bf6a1f01000000000000000083816114e4576114e36124c3565b5b0492506040810190505b6d04ee2d6d415b85acef8100000000831061152b576d04ee2d6d415b85acef81000000008381611521576115206124c3565b5b0492506020810190505b662386f26fc10000831061155a57662386f26fc1000083816115505761154f6124c3565b5b0492506010810190505b6305f5e1008310611583576305f5e1008381611579576115786124c3565b5b0492506008810190505b61271083106115a857612710838161159e5761159d6124c3565b5b0492506004810190505b606483106115cb57606483816115c1576115c06124c3565b5b0492506002810190505b600a83106115da576001810190505b80915050919050565b60008060045490506001816115f89190612356565b6004819055506000634042994660e01b60008087600001513089604001518760018c608001516000015160405160240161163998979695949392919061277f565b604051602081830303815290604052907bffffffffffffffffffffffffffffffffffffffffffffffffffffffff19166020820180517bffffffffffffffffffffffffffffffffffffffffffffffffffffffff838183161783525050505090506116a4868386846118c0565b925050509392505050565b6116b7611d60565b60006020836116c69190612804565b146116f2576020826116d89190612804565b60206116e49190612835565b826116ef9190612356565b91505b81836020018181525050604051808452600081528281016020016040525082905092915050565b60178167ffffffffffffffff16116117505761174a8160058460ff16901b60ff161784611a5590919063ffffffff16565b50611899565b60ff8167ffffffffffffffff16116117a65761177f601860058460ff16901b1784611a5590919063ffffffff16565b506117a08167ffffffffffffffff16600185611a759092919063ffffffff16565b50611898565b61ffff8167ffffffffffffffff16116117fd576117d6601960058460ff16901b1784611a5590919063ffffffff16565b506117f78167ffffffffffffffff16600285611a759092919063ffffffff16565b50611897565b63ffffffff8167ffffffffffffffff16116118565761182f601a60058460ff16901b1784611a5590919063ffffffff16565b506118508167ffffffffffffffff16600485611a759092919063ffffffff16565b50611896565b611873601b60058460ff16901b1784611a5590919063ffffffff16565b506118948167ffffffffffffffff16600885611a759092919063ffffffff16565b505b5b5b5b505050565b6118a6611d60565b6118b883846000015151848551611a97565b905092915050565b600030846040516020016118d5929190612922565b604051602081830303815290604052805190602001209050846005600083815260200190815260200160002060006101000a81548173ffffffffffffffffffffffffffffffffffffffff021916908373ffffffffffffffffffffffffffffffffffffffff160217905550807fb5e6e01e79f91267dc17b4e6314d5d4d03593d2ceee0fbb452b750bd70ea5af960405160405180910390a2600260009054906101000a900473ffffffffffffffffffffffffffffffffffffffff1673ffffffffffffffffffffffffffffffffffffffff16634000aea08685856040518463ffffffff1660e01b81526004016119cb9392919061294e565b6020604051808303816000875af11580156119ea573d6000803e3d6000fd5b505050506040513d601f19601f82011682018060405250810190611a0e91906129a1565b611a4d576040517f08c379a0000000000000000000000000000000000000000000000000000000008152600401611a4490612a40565b60405180910390fd5b949350505050565b611a5d611d60565b611a6d8384600001515184611b86565b905092915050565b611a7d611d60565b611a8e848560000151518585611bdc565b90509392505050565b611a9f611d60565b8251821115611aad57600080fd5b84602001518285611abe9190612356565b1115611af357611af2856002611ae388602001518887611ade9190612356565b611c6a565b611aed9190612569565b611c86565b5b600080865180518760208301019350808887011115611b125787860182525b60208701925050505b60208410611b595780518252602082611b349190612356565b9150602081611b439190612356565b9050602084611b529190612835565b9350611b1b565b60006001856020036101000a03905080198251168184511681811785525050508692505050949350505050565b611b8e611d60565b83602001518310611bb457611bb38460028660200151611bae9190612569565b611c86565b5b83518051602085830101848153818603611bcf576001820183525b5050508390509392505050565b611be4611d60565b84602001518483611bf59190612356565b1115611c1d57611c1c8560028685611c0d9190612356565b611c179190612569565b611c86565b5b6000600183610100611c2f9190612b93565b611c399190612835565b90508551838682010185831982511617815281518588011115611c5c5784870182525b505085915050949350505050565b600081831115611c7c57829050611c80565b8190505b92915050565b600082600001519050611c9983836116af565b50611ca4838261189e565b50505050565b6040518060a0016040528060008019168152602001600073ffffffffffffffffffffffffffffffffffffffff16815260200160007bffffffffffffffffffffffffffffffffffffffffffffffffffffffff1916815260200160008152602001611d11611d60565b81525090565b6040518060a00160405280600073ffffffffffffffffffffffffffffffffffffffff16815260200160008152602001600081526020016000151581526020016000151581525090565b604051806040016040528060608152602001600081525090565b600080fd5b6000819050919050565b611d9281611d7f565b8114611d9d57600080fd5b50565b600081359050611daf81611d89565b92915050565b60008060408385031215611dcc57611dcb611d7a565b5b6000611dda85828601611da0565b9250506020611deb85828601611da0565b9150509250929050565b600073ffffffffffffffffffffffffffffffffffffffff82169050919050565b6000611e2082611df5565b9050919050565b611e3081611e15565b82525050565b6000602082019050611e4b6000830184611e27565b92915050565b600060208284031215611e6757611e66611d7a565b5b6000611e7584828501611da0565b91505092915050565b611e8781611d7f565b82525050565b6000604082019050611ea26000830185611e7e565b611eaf6020830184611e7e565b9392505050565b611ebf81611e15565b8114611eca57600080fd5b50565b600081359050611edc81611eb6565b92915050565b60008060408385031215611ef957611ef8611d7a565b5b6000611f0785828601611ecd565b9250506020611f1885828601611da0565b9150509250929050565b60008115159050919050565b611f3781611f22565b82525050565b600060a082019050611f526000830188611e27565b611f5f6020830187611e7e565b611f6c6040830186611e7e565b611f796060830185611f2e565b611f866080830184611f2e565b9695505050505050565b6000819050919050565b611fa381611f90565b82525050565b6000602082019050611fbe6000830184611f9a565b92915050565b611fcd81611f22565b8114611fd857600080fd5b50565b600081359050611fea81611fc4565b92915050565b6000806040838503121561200757612006611d7a565b5b600061201585828601611da0565b925050602061202685828601611fdb565b9150509250929050565b61203981611f90565b811461204457600080fd5b50565b60008135905061205681612030565b92915050565b6000819050919050565b61206f8161205c565b811461207a57600080fd5b50565b60008135905061208c81612066565b92915050565b600080604083850312156120a9576120a8611d7a565b5b60006120b785828601612047565b92505060206120c88582860161207d565b9150509250929050565b60006020820190506120e76000830184611e7e565b92915050565b60006020828403121561210357612102611d7a565b5b600061211184828501611ecd565b91505092915050565b600082825260208201905092915050565b7f5468652067616d65206973206f766572206f7220646f65736e2774206578697360008201527f7400000000000000000000000000000000000000000000000000000000000000602082015250565b600061218760218361211a565b91506121928261212b565b604082019050919050565b600060208201905081810360008301526121b68161217a565b9050919050565b7f4d7573742062652070726f706f736564206f776e657200000000000000000000600082015250565b60006121f360168361211a565b91506121fe826121bd565b602082019050919050565b60006020820190508181036000830152612222816121e6565b9050919050565b7f4f6e6c7920746865204f7261636c652063616e2063616c6c207468697320667560008201527f6e6374696f6e0000000000000000000000000000000000000000000000000000602082015250565b600061228560268361211a565b915061229082612229565b604082019050919050565b600060208201905081810360008301526122b481612278565b9050919050565b7f5468652067616d65206973206f76657200000000000000000000000000000000600082015250565b60006122f160108361211a565b91506122fc826122bb565b602082019050919050565b60006020820190508181036000830152612320816122e4565b9050919050565b7f4e487b7100000000000000000000000000000000000000000000000000000000600052601160045260246000fd5b600061236182611d7f565b915061236c83611d7f565b925082820190508082111561238457612383612327565b5b92915050565b7f536f75726365206d75737420626520746865206f7261636c65206f662074686560008201527f2072657175657374000000000000000000000000000000000000000000000000602082015250565b60006123e660288361211a565b91506123f18261238a565b604082019050919050565b60006020820190508181036000830152612415816123d9565b9050919050565b60006124278261205c565b91506124328361205c565b92508282026124408161205c565b91507f8000000000000000000000000000000000000000000000000000000000000000841460008412161561247857612477612327565b5b828205841483151761248d5761248c612327565b5b5092915050565b7f4e487b7100000000000000000000000000000000000000000000000000000000600052604160045260246000fd5b7f4e487b7100000000000000000000000000000000000000000000000000000000600052601260045260246000fd5b7f4e487b7100000000000000000000000000000000000000000000000000000000600052603260045260246000fd5b600061252c82611d7f565b91507fffffffffffffffffffffffffffffffffffffffffffffffffffffffffffffffff820361255e5761255d612327565b5b600182019050919050565b600061257482611d7f565b915061257f83611d7f565b925082820261258d81611d7f565b915082820484148315176125a4576125a3612327565b5b5092915050565b60006125b682611d7f565b91506125c183611d7f565b9250826125d1576125d06124c3565b5b828204905092915050565b7f4f6e6c792063616c6c61626c65206279206f776e657200000000000000000000600082015250565b600061261260168361211a565b915061261d826125dc565b602082019050919050565b6000602082019050818103600083015261264181612605565b9050919050565b7f43616e6e6f74207472616e7366657220746f2073656c66000000000000000000600082015250565b600061267e60178361211a565b915061268982612648565b602082019050919050565b600060208201905081810360008301526126ad81612671565b9050919050565b60007fffffffff0000000000000000000000000000000000000000000000000000000082169050919050565b6126e9816126b4565b82525050565b600081519050919050565b600082825260208201905092915050565b60005b8381101561272957808201518184015260208101905061270e565b60008484015250505050565b6000601f19601f8301169050919050565b6000612751826126ef565b61275b81856126fa565b935061276b81856020860161270b565b61277481612735565b840191505092915050565b600061010082019050612795600083018b611e27565b6127a2602083018a611e7e565b6127af6040830189611f9a565b6127bc6060830188611e27565b6127c960808301876126e0565b6127d660a0830186611e7e565b6127e360c0830185611e7e565b81810360e08301526127f58184612746565b90509998505050505050505050565b600061280f82611d7f565b915061281a83611d7f565b92508261282a576128296124c3565b5b828206905092915050565b600061284082611d7f565b915061284b83611d7f565b925082820390508181111561286357612862612327565b5b92915050565b6000819050919050565b600061288e61288961288484611df5565b612869565b611df5565b9050919050565b60006128a082612873565b9050919050565b60006128b282612895565b9050919050565b60008160601b9050919050565b60006128d1826128b9565b9050919050565b60006128e3826128c6565b9050919050565b6128fb6128f6826128a7565b6128d8565b82525050565b6000819050919050565b61291c61291782611d7f565b612901565b82525050565b600061292e82856128ea565b60148201915061293e828461290b565b6020820191508190509392505050565b60006060820190506129636000830186611e27565b6129706020830185611e7e565b81810360408301526129828184612746565b9050949350505050565b60008151905061299b81611fc4565b92915050565b6000602082840312156129b7576129b6611d7a565b5b60006129c58482850161298c565b91505092915050565b7f756e61626c6520746f207472616e73666572416e6443616c6c20746f206f726160008201527f636c650000000000000000000000000000000000000000000000000000000000602082015250565b6000612a2a60238361211a565b9150612a35826129ce565b604082019050919050565b60006020820190508181036000830152612a5981612a1d565b9050919050565b60008160011c9050919050565b6000808291508390505b6001851115612ab757808604811115612a9357612a92612327565b5b6001851615612aa25780820291505b8081029050612ab085612a60565b9450612a77565b94509492505050565b600082612ad05760019050612b8c565b81612ade5760009050612b8c565b8160018114612af45760028114612afe57612b2d565b6001915050612b8c565b60ff841115612b1057612b0f612327565b5b8360020a915084821115612b2757612b26612327565b5b50612b8c565b5060208310610133831016604e8410600b8410161715612b625782820a905083811115612b5d57612b5c612327565b5b612b8c565b612b6f8484846001612a6d565b92509050818404811115612b8657612b85612327565b5b81810290505b9392505050565b6000612b9e82611d7f565b9150612ba983611d7f565b9250612bd67fffffffffffffffffffffffffffffffffffffffffffffffffffffffffffffffff8484612ac0565b90509291505056fe68747470733a2f2f646573706f7274732d65787465726e616c2d616461707465722e6f6e72656e6465722e636f6da2646970667358221220cb961f55783a6876b3a3720d19d7ea976b1739a247aee24a0fc744e4ba562d0464736f6c63430008120033",
			"opcodes": "PUSH1 0x80 PUSH1 0x40 MSTORE PUSH1 0x1 PUSH1 0x4 SSTORE CALLVALUE DUP1 ISZERO PUSH3 0x16 JUMPI PUSH1 0x0 DUP1 REVERT JUMPDEST POP PUSH1 0x40 MLOAD PUSH3 0x32A7 CODESIZE SUB DUP1 PUSH3 0x32A7 DUP4 CODECOPY DUP2 DUP2 ADD PUSH1 0x40 MSTORE DUP2 ADD SWAP1 PUSH3 0x3C SWAP2 SWAP1 PUSH3 0x443 JUMP JUMPDEST CALLER DUP1 PUSH1 0x0 DUP1 PUSH20 0xFFFFFFFFFFFFFFFFFFFFFFFFFFFFFFFFFFFFFFFF AND DUP3 PUSH20 0xFFFFFFFFFFFFFFFFFFFFFFFFFFFFFFFFFFFFFFFF AND SUB PUSH3 0xB1 JUMPI PUSH1 0x40 MLOAD PUSH32 0x8C379A000000000000000000000000000000000000000000000000000000000 DUP2 MSTORE PUSH1 0x4 ADD PUSH3 0xA8 SWAP1 PUSH3 0x4D6 JUMP JUMPDEST PUSH1 0x40 MLOAD DUP1 SWAP2 SUB SWAP1 REVERT JUMPDEST DUP2 PUSH1 0x6 PUSH1 0x0 PUSH2 0x100 EXP DUP2 SLOAD DUP2 PUSH20 0xFFFFFFFFFFFFFFFFFFFFFFFFFFFFFFFFFFFFFFFF MUL NOT AND SWAP1 DUP4 PUSH20 0xFFFFFFFFFFFFFFFFFFFFFFFFFFFFFFFFFFFFFFFF AND MUL OR SWAP1 SSTORE POP PUSH1 0x0 PUSH20 0xFFFFFFFFFFFFFFFFFFFFFFFFFFFFFFFFFFFFFFFF AND DUP2 PUSH20 0xFFFFFFFFFFFFFFFFFFFFFFFFFFFFFFFFFFFFFFFF AND EQ PUSH3 0x139 JUMPI PUSH3 0x138 DUP2 PUSH3 0x220 PUSH1 0x20 SHL PUSH1 0x20 SHR JUMP JUMPDEST JUMPDEST POP POP POP DUP1 PUSH1 0x8 PUSH1 0x0 PUSH2 0x100 EXP DUP2 SLOAD DUP2 PUSH20 0xFFFFFFFFFFFFFFFFFFFFFFFFFFFFFFFFFFFFFFFF MUL NOT AND SWAP1 DUP4 PUSH20 0xFFFFFFFFFFFFFFFFFFFFFFFFFFFFFFFFFFFFFFFF AND MUL OR SWAP1 SSTORE POP PUSH3 0x1A2 PUSH20 0x779877A7B0D9E8603169DDBD7836E478B4624789 PUSH3 0x351 PUSH1 0x20 SHL PUSH1 0x20 SHR JUMP JUMPDEST PUSH3 0x1C7 PUSH20 0x6090149792DAAEE9D1D568C9F9A6F6B46AA29EFD PUSH3 0x395 PUSH1 0x20 SHL PUSH1 0x20 SHR JUMP JUMPDEST PUSH32 0x6331633565393238383038393465623662323764336361653139363730616133 PUSH1 0xF DUP2 SWAP1 SSTORE POP PUSH1 0xA PUSH8 0xDE0B6B3A7640000 PUSH1 0x1 PUSH3 0x207 SWAP2 SWAP1 PUSH3 0x531 JUMP JUMPDEST PUSH3 0x213 SWAP2 SWAP1 PUSH3 0x5AB JUMP JUMPDEST PUSH1 0x10 DUP2 SWAP1 SSTORE POP POP PUSH3 0x655 JUMP JUMPDEST CALLER PUSH20 0xFFFFFFFFFFFFFFFFFFFFFFFFFFFFFFFFFFFFFFFF AND DUP2 PUSH20 0xFFFFFFFFFFFFFFFFFFFFFFFFFFFFFFFFFFFFFFFF AND SUB PUSH3 0x291 JUMPI PUSH1 0x40 MLOAD PUSH32 0x8C379A000000000000000000000000000000000000000000000000000000000 DUP2 MSTORE PUSH1 0x4 ADD PUSH3 0x288 SWAP1 PUSH3 0x633 JUMP JUMPDEST PUSH1 0x40 MLOAD DUP1 SWAP2 SUB SWAP1 REVERT JUMPDEST DUP1 PUSH1 0x7 PUSH1 0x0 PUSH2 0x100 EXP DUP2 SLOAD DUP2 PUSH20 0xFFFFFFFFFFFFFFFFFFFFFFFFFFFFFFFFFFFFFFFF MUL NOT AND SWAP1 DUP4 PUSH20 0xFFFFFFFFFFFFFFFFFFFFFFFFFFFFFFFFFFFFFFFF AND MUL OR SWAP1 SSTORE POP DUP1 PUSH20 0xFFFFFFFFFFFFFFFFFFFFFFFFFFFFFFFFFFFFFFFF AND PUSH1 0x6 PUSH1 0x0 SWAP1 SLOAD SWAP1 PUSH2 0x100 EXP SWAP1 DIV PUSH20 0xFFFFFFFFFFFFFFFFFFFFFFFFFFFFFFFFFFFFFFFF AND PUSH20 0xFFFFFFFFFFFFFFFFFFFFFFFFFFFFFFFFFFFFFFFF AND PUSH32 0xED8889F560326EB138920D842192F0EB3DD22B4F139C87A2C57538E05BAE1278 PUSH1 0x40 MLOAD PUSH1 0x40 MLOAD DUP1 SWAP2 SUB SWAP1 LOG3 POP JUMP JUMPDEST DUP1 PUSH1 0x2 PUSH1 0x0 PUSH2 0x100 EXP DUP2 SLOAD DUP2 PUSH20 0xFFFFFFFFFFFFFFFFFFFFFFFFFFFFFFFFFFFFFFFF MUL NOT AND SWAP1 DUP4 PUSH20 0xFFFFFFFFFFFFFFFFFFFFFFFFFFFFFFFFFFFFFFFF AND MUL OR SWAP1 SSTORE POP POP JUMP JUMPDEST DUP1 PUSH1 0x3 PUSH1 0x0 PUSH2 0x100 EXP DUP2 SLOAD DUP2 PUSH20 0xFFFFFFFFFFFFFFFFFFFFFFFFFFFFFFFFFFFFFFFF MUL NOT AND SWAP1 DUP4 PUSH20 0xFFFFFFFFFFFFFFFFFFFFFFFFFFFFFFFFFFFFFFFF AND MUL OR SWAP1 SSTORE POP POP JUMP JUMPDEST PUSH1 0x0 DUP1 REVERT JUMPDEST PUSH1 0x0 PUSH20 0xFFFFFFFFFFFFFFFFFFFFFFFFFFFFFFFFFFFFFFFF DUP3 AND SWAP1 POP SWAP2 SWAP1 POP JUMP JUMPDEST PUSH1 0x0 PUSH3 0x40B DUP3 PUSH3 0x3DE JUMP JUMPDEST SWAP1 POP SWAP2 SWAP1 POP JUMP JUMPDEST PUSH3 0x41D DUP2 PUSH3 0x3FE JUMP JUMPDEST DUP2 EQ PUSH3 0x429 JUMPI PUSH1 0x0 DUP1 REVERT JUMPDEST POP JUMP JUMPDEST PUSH1 0x0 DUP2 MLOAD SWAP1 POP PUSH3 0x43D DUP2 PUSH3 0x412 JUMP JUMPDEST SWAP3 SWAP2 POP POP JUMP JUMPDEST PUSH1 0x0 PUSH1 0x20 DUP3 DUP5 SUB SLT ISZERO PUSH3 0x45C JUMPI PUSH3 0x45B PUSH3 0x3D9 JUMP JUMPDEST JUMPDEST PUSH1 0x0 PUSH3 0x46C DUP5 DUP3 DUP6 ADD PUSH3 0x42C JUMP JUMPDEST SWAP2 POP POP SWAP3 SWAP2 POP POP JUMP JUMPDEST PUSH1 0x0 DUP3 DUP3 MSTORE PUSH1 0x20 DUP3 ADD SWAP1 POP SWAP3 SWAP2 POP POP JUMP JUMPDEST PUSH32 0x43616E6E6F7420736574206F776E657220746F207A65726F0000000000000000 PUSH1 0x0 DUP3 ADD MSTORE POP JUMP JUMPDEST PUSH1 0x0 PUSH3 0x4BE PUSH1 0x18 DUP4 PUSH3 0x475 JUMP JUMPDEST SWAP2 POP PUSH3 0x4CB DUP3 PUSH3 0x486 JUMP JUMPDEST PUSH1 0x20 DUP3 ADD SWAP1 POP SWAP2 SWAP1 POP JUMP JUMPDEST PUSH1 0x0 PUSH1 0x20 DUP3 ADD SWAP1 POP DUP2 DUP2 SUB PUSH1 0x0 DUP4 ADD MSTORE PUSH3 0x4F1 DUP2 PUSH3 0x4AF JUMP JUMPDEST SWAP1 POP SWAP2 SWAP1 POP JUMP JUMPDEST PUSH1 0x0 DUP2 SWAP1 POP SWAP2 SWAP1 POP JUMP JUMPDEST PUSH32 0x4E487B7100000000000000000000000000000000000000000000000000000000 PUSH1 0x0 MSTORE PUSH1 0x11 PUSH1 0x4 MSTORE PUSH1 0x24 PUSH1 0x0 REVERT JUMPDEST PUSH1 0x0 PUSH3 0x53E DUP3 PUSH3 0x4F8 JUMP JUMPDEST SWAP2 POP PUSH3 0x54B DUP4 PUSH3 0x4F8 JUMP JUMPDEST SWAP3 POP DUP3 DUP3 MUL PUSH3 0x55B DUP2 PUSH3 0x4F8 JUMP JUMPDEST SWAP2 POP DUP3 DUP3 DIV DUP5 EQ DUP4 ISZERO OR PUSH3 0x575 JUMPI PUSH3 0x574 PUSH3 0x502 JUMP JUMPDEST JUMPDEST POP SWAP3 SWAP2 POP POP JUMP JUMPDEST PUSH32 0x4E487B7100000000000000000000000000000000000000000000000000000000 PUSH1 0x0 MSTORE PUSH1 0x12 PUSH1 0x4 MSTORE PUSH1 0x24 PUSH1 0x0 REVERT JUMPDEST PUSH1 0x0 PUSH3 0x5B8 DUP3 PUSH3 0x4F8 JUMP JUMPDEST SWAP2 POP PUSH3 0x5C5 DUP4 PUSH3 0x4F8 JUMP JUMPDEST SWAP3 POP DUP3 PUSH3 0x5D8 JUMPI PUSH3 0x5D7 PUSH3 0x57C JUMP JUMPDEST JUMPDEST DUP3 DUP3 DIV SWAP1 POP SWAP3 SWAP2 POP POP JUMP JUMPDEST PUSH32 0x43616E6E6F74207472616E7366657220746F2073656C66000000000000000000 PUSH1 0x0 DUP3 ADD MSTORE POP JUMP JUMPDEST PUSH1 0x0 PUSH3 0x61B PUSH1 0x17 DUP4 PUSH3 0x475 JUMP JUMPDEST SWAP2 POP PUSH3 0x628 DUP3 PUSH3 0x5E3 JUMP JUMPDEST PUSH1 0x20 DUP3 ADD SWAP1 POP SWAP2 SWAP1 POP JUMP JUMPDEST PUSH1 0x0 PUSH1 0x20 DUP3 ADD SWAP1 POP DUP2 DUP2 SUB PUSH1 0x0 DUP4 ADD MSTORE PUSH3 0x64E DUP2 PUSH3 0x60C JUMP JUMPDEST SWAP1 POP SWAP2 SWAP1 POP JUMP JUMPDEST PUSH2 0x2C42 DUP1 PUSH3 0x665 PUSH1 0x0 CODECOPY PUSH1 0x0 RETURN INVALID PUSH1 0x80 PUSH1 0x40 MSTORE PUSH1 0x4 CALLDATASIZE LT PUSH2 0xC2 JUMPI PUSH1 0x0 CALLDATALOAD PUSH1 0xE0 SHR DUP1 PUSH4 0x8DA5CB5B GT PUSH2 0x7F JUMPI DUP1 PUSH4 0xBDA71D04 GT PUSH2 0x59 JUMPI DUP1 PUSH4 0xBDA71D04 EQ PUSH2 0x272 JUMPI DUP1 PUSH4 0xC618A1E4 EQ PUSH2 0x29B JUMPI DUP1 PUSH4 0xC8D34C78 EQ PUSH2 0x2C6 JUMPI DUP1 PUSH4 0xF2FDE38B EQ PUSH2 0x303 JUMPI PUSH2 0xC2 JUMP JUMPDEST DUP1 PUSH4 0x8DA5CB5B EQ PUSH2 0x202 JUMPI DUP1 PUSH4 0x8DFCB01D EQ PUSH2 0x22D JUMPI DUP1 PUSH4 0x9ED9C74D EQ PUSH2 0x256 JUMPI PUSH2 0xC2 JUMP JUMPDEST DUP1 PUSH4 0x205BECD EQ PUSH2 0xC7 JUMPI DUP1 PUSH4 0x1CCF6955 EQ PUSH2 0x104 JUMPI DUP1 PUSH4 0x643E8F07 EQ PUSH2 0x142 JUMPI DUP1 PUSH4 0x79BA5097 EQ PUSH2 0x183 JUMPI DUP1 PUSH4 0x7DC0D1D0 EQ PUSH2 0x19A JUMPI DUP1 PUSH4 0x811862B7 EQ PUSH2 0x1C5 JUMPI JUMPDEST PUSH1 0x0 DUP1 REVERT JUMPDEST CALLVALUE DUP1 ISZERO PUSH2 0xD3 JUMPI PUSH1 0x0 DUP1 REVERT JUMPDEST POP PUSH2 0xEE PUSH1 0x4 DUP1 CALLDATASIZE SUB DUP2 ADD SWAP1 PUSH2 0xE9 SWAP2 SWAP1 PUSH2 0x1DB5 JUMP JUMPDEST PUSH2 0x32C JUMP JUMPDEST PUSH1 0x40 MLOAD PUSH2 0xFB SWAP2 SWAP1 PUSH2 0x1E36 JUMP JUMPDEST PUSH1 0x40 MLOAD DUP1 SWAP2 SUB SWAP1 RETURN JUMPDEST CALLVALUE DUP1 ISZERO PUSH2 0x110 JUMPI PUSH1 0x0 DUP1 REVERT JUMPDEST POP PUSH2 0x12B PUSH1 0x4 DUP1 CALLDATASIZE SUB DUP2 ADD SWAP1 PUSH2 0x126 SWAP2 SWAP1 PUSH2 0x1E51 JUMP JUMPDEST PUSH2 0x37A JUMP JUMPDEST PUSH1 0x40 MLOAD PUSH2 0x139 SWAP3 SWAP2 SWAP1 PUSH2 0x1E8D JUMP JUMPDEST PUSH1 0x40 MLOAD DUP1 SWAP2 SUB SWAP1 RETURN JUMPDEST CALLVALUE DUP1 ISZERO PUSH2 0x14E JUMPI PUSH1 0x0 DUP1 REVERT JUMPDEST POP PUSH2 0x169 PUSH1 0x4 DUP1 CALLDATASIZE SUB DUP2 ADD SWAP1 PUSH2 0x164 SWAP2 SWAP1 PUSH2 0x1EE2 JUMP JUMPDEST PUSH2 0x440 JUMP JUMPDEST PUSH1 0x40 MLOAD PUSH2 0x17A SWAP6 SWAP5 SWAP4 SWAP3 SWAP2 SWAP1 PUSH2 0x1F3D JUMP JUMPDEST PUSH1 0x40 MLOAD DUP1 SWAP2 SUB SWAP1 RETURN JUMPDEST CALLVALUE DUP1 ISZERO PUSH2 0x18F JUMPI PUSH1 0x0 DUP1 REVERT JUMPDEST POP PUSH2 0x198 PUSH2 0x4CD JUMP JUMPDEST STOP JUMPDEST CALLVALUE DUP1 ISZERO PUSH2 0x1A6 JUMPI PUSH1 0x0 DUP1 REVERT JUMPDEST POP PUSH2 0x1AF PUSH2 0x664 JUMP JUMPDEST PUSH1 0x40 MLOAD PUSH2 0x1BC SWAP2 SWAP1 PUSH2 0x1E36 JUMP JUMPDEST PUSH1 0x40 MLOAD DUP1 SWAP2 SUB SWAP1 RETURN JUMPDEST CALLVALUE DUP1 ISZERO PUSH2 0x1D1 JUMPI PUSH1 0x0 DUP1 REVERT JUMPDEST POP PUSH2 0x1EC PUSH1 0x4 DUP1 CALLDATASIZE SUB DUP2 ADD SWAP1 PUSH2 0x1E7 SWAP2 SWAP1 PUSH2 0x1E51 JUMP JUMPDEST PUSH2 0x68A JUMP JUMPDEST PUSH1 0x40 MLOAD PUSH2 0x1F9 SWAP2 SWAP1 PUSH2 0x1FA9 JUMP JUMPDEST PUSH1 0x40 MLOAD DUP1 SWAP2 SUB SWAP1 RETURN JUMPDEST CALLVALUE DUP1 ISZERO PUSH2 0x20E JUMPI PUSH1 0x0 DUP1 REVERT JUMPDEST POP PUSH2 0x217 PUSH2 0x76B JUMP JUMPDEST PUSH1 0x40 MLOAD PUSH2 0x224 SWAP2 SWAP1 PUSH2 0x1E36 JUMP JUMPDEST PUSH1 0x40 MLOAD DUP1 SWAP2 SUB SWAP1 RETURN JUMPDEST CALLVALUE DUP1 ISZERO PUSH2 0x239 JUMPI PUSH1 0x0 DUP1 REVERT JUMPDEST POP PUSH2 0x254 PUSH1 0x4 DUP1 CALLDATASIZE SUB DUP2 ADD SWAP1 PUSH2 0x24F SWAP2 SWAP1 PUSH2 0x1FF0 JUMP JUMPDEST PUSH2 0x795 JUMP JUMPDEST STOP JUMPDEST PUSH2 0x270 PUSH1 0x4 DUP1 CALLDATASIZE SUB DUP2 ADD SWAP1 PUSH2 0x26B SWAP2 SWAP1 PUSH2 0x1FF0 JUMP JUMPDEST PUSH2 0x880 JUMP JUMPDEST STOP JUMPDEST CALLVALUE DUP1 ISZERO PUSH2 0x27E JUMPI PUSH1 0x0 DUP1 REVERT JUMPDEST POP PUSH2 0x299 PUSH1 0x4 DUP1 CALLDATASIZE SUB DUP2 ADD SWAP1 PUSH2 0x294 SWAP2 SWAP1 PUSH2 0x2092 JUMP JUMPDEST PUSH2 0xAE5 JUMP JUMPDEST STOP JUMPDEST CALLVALUE DUP1 ISZERO PUSH2 0x2A7 JUMPI PUSH1 0x0 DUP1 REVERT JUMPDEST POP PUSH2 0x2B0 PUSH2 0xD05 JUMP JUMPDEST PUSH1 0x40 MLOAD PUSH2 0x2BD SWAP2 SWAP1 PUSH2 0x20D2 JUMP JUMPDEST PUSH1 0x40 MLOAD DUP1 SWAP2 SUB SWAP1 RETURN JUMPDEST CALLVALUE DUP1 ISZERO PUSH2 0x2D2 JUMPI PUSH1 0x0 DUP1 REVERT JUMPDEST POP PUSH2 0x2ED PUSH1 0x4 DUP1 CALLDATASIZE SUB DUP2 ADD SWAP1 PUSH2 0x2E8 SWAP2 SWAP1 PUSH2 0x1FF0 JUMP JUMPDEST PUSH2 0xD0B JUMP JUMPDEST PUSH1 0x40 MLOAD PUSH2 0x2FA SWAP2 SWAP1 PUSH2 0x20D2 JUMP JUMPDEST PUSH1 0x40 MLOAD DUP1 SWAP2 SUB SWAP1 RETURN JUMPDEST CALLVALUE DUP1 ISZERO PUSH2 0x30F JUMPI PUSH1 0x0 DUP1 REVERT JUMPDEST POP PUSH2 0x32A PUSH1 0x4 DUP1 CALLDATASIZE SUB DUP2 ADD SWAP1 PUSH2 0x325 SWAP2 SWAP1 PUSH2 0x20ED JUMP JUMPDEST PUSH2 0xD30 JUMP JUMPDEST STOP JUMPDEST PUSH1 0xD PUSH1 0x20 MSTORE DUP2 PUSH1 0x0 MSTORE PUSH1 0x40 PUSH1 0x0 KECCAK256 DUP2 DUP2 SLOAD DUP2 LT PUSH2 0x348 JUMPI PUSH1 0x0 DUP1 REVERT JUMPDEST SWAP1 PUSH1 0x0 MSTORE PUSH1 0x20 PUSH1 0x0 KECCAK256 ADD PUSH1 0x0 SWAP2 POP SWAP2 POP SWAP1 SLOAD SWAP1 PUSH2 0x100 EXP SWAP1 DIV PUSH20 0xFFFFFFFFFFFFFFFFFFFFFFFFFFFFFFFFFFFFFFFF AND DUP2 JUMP JUMPDEST PUSH1 0x0 DUP1 PUSH1 0x0 ISZERO ISZERO PUSH1 0xB PUSH1 0x0 DUP6 DUP2 MSTORE PUSH1 0x20 ADD SWAP1 DUP2 MSTORE PUSH1 0x20 ADD PUSH1 0x0 KECCAK256 PUSH1 0x0 SWAP1 SLOAD SWAP1 PUSH2 0x100 EXP SWAP1 DIV PUSH1 0xFF AND ISZERO ISZERO EQ PUSH2 0x3E4 JUMPI PUSH1 0x40 MLOAD PUSH32 0x8C379A000000000000000000000000000000000000000000000000000000000 DUP2 MSTORE PUSH1 0x4 ADD PUSH2 0x3DB SWAP1 PUSH2 0x219D JUMP JUMPDEST PUSH1 0x40 MLOAD DUP1 SWAP2 SUB SWAP1 REVERT JUMPDEST PUSH1 0x9 PUSH1 0x0 DUP5 DUP2 MSTORE PUSH1 0x20 ADD SWAP1 DUP2 MSTORE PUSH1 0x20 ADD PUSH1 0x0 KECCAK256 PUSH1 0x0 PUSH1 0x1 ISZERO ISZERO ISZERO ISZERO DUP2 MSTORE PUSH1 0x20 ADD SWAP1 DUP2 MSTORE PUSH1 0x20 ADD PUSH1 0x0 KECCAK256 SLOAD PUSH1 0x9 PUSH1 0x0 DUP6 DUP2 MSTORE PUSH1 0x20 ADD SWAP1 DUP2 MSTORE PUSH1 0x20 ADD PUSH1 0x0 KECCAK256 PUSH1 0x0 DUP1 ISZERO ISZERO ISZERO ISZERO DUP2 MSTORE PUSH1 0x20 ADD SWAP1 DUP2 MSTORE PUSH1 0x20 ADD PUSH1 0x0 KECCAK256 SLOAD SWAP2 POP SWAP2 POP SWAP2 POP SWAP2 JUMP JUMPDEST PUSH1 0xC PUSH1 0x20 MSTORE DUP2 PUSH1 0x0 MSTORE PUSH1 0x40 PUSH1 0x0 KECCAK256 DUP2 DUP2 SLOAD DUP2 LT PUSH2 0x45C JUMPI PUSH1 0x0 DUP1 REVERT JUMPDEST SWAP1 PUSH1 0x0 MSTORE PUSH1 0x20 PUSH1 0x0 KECCAK256 SWAP1 PUSH1 0x4 MUL ADD PUSH1 0x0 SWAP2 POP SWAP2 POP POP DUP1 PUSH1 0x0 ADD PUSH1 0x0 SWAP1 SLOAD SWAP1 PUSH2 0x100 EXP SWAP1 DIV PUSH20 0xFFFFFFFFFFFFFFFFFFFFFFFFFFFFFFFFFFFFFFFF AND SWAP1 DUP1 PUSH1 0x1 ADD SLOAD SWAP1 DUP1 PUSH1 0x2 ADD SLOAD SWAP1 DUP1 PUSH1 0x3 ADD PUSH1 0x0 SWAP1 SLOAD SWAP1 PUSH2 0x100 EXP SWAP1 DIV PUSH1 0xFF AND SWAP1 DUP1 PUSH1 0x3 ADD PUSH1 0x1 SWAP1 SLOAD SWAP1 PUSH2 0x100 EXP SWAP1 DIV PUSH1 0xFF AND SWAP1 POP DUP6 JUMP JUMPDEST PUSH1 0x7 PUSH1 0x0 SWAP1 SLOAD SWAP1 PUSH2 0x100 EXP SWAP1 DIV PUSH20 0xFFFFFFFFFFFFFFFFFFFFFFFFFFFFFFFFFFFFFFFF AND PUSH20 0xFFFFFFFFFFFFFFFFFFFFFFFFFFFFFFFFFFFFFFFF AND CALLER PUSH20 0xFFFFFFFFFFFFFFFFFFFFFFFFFFFFFFFFFFFFFFFF AND EQ PUSH2 0x55D JUMPI PUSH1 0x40 MLOAD PUSH32 0x8C379A000000000000000000000000000000000000000000000000000000000 DUP2 MSTORE PUSH1 0x4 ADD PUSH2 0x554 SWAP1 PUSH2 0x2209 JUMP JUMPDEST PUSH1 0x40 MLOAD DUP1 SWAP2 SUB SWAP1 REVERT JUMPDEST PUSH1 0x0 PUSH1 0x6 PUSH1 0x0 SWAP1 SLOAD SWAP1 PUSH2 0x100 EXP SWAP1 DIV PUSH20 0xFFFFFFFFFFFFFFFFFFFFFFFFFFFFFFFFFFFFFFFF AND SWAP1 POP CALLER PUSH1 0x6 PUSH1 0x0 PUSH2 0x100 EXP DUP2 SLOAD DUP2 PUSH20 0xFFFFFFFFFFFFFFFFFFFFFFFFFFFFFFFFFFFFFFFF MUL NOT AND SWAP1 DUP4 PUSH20 0xFFFFFFFFFFFFFFFFFFFFFFFFFFFFFFFFFFFFFFFF AND MUL OR SWAP1 SSTORE POP PUSH1 0x0 PUSH1 0x7 PUSH1 0x0 PUSH2 0x100 EXP DUP2 SLOAD DUP2 PUSH20 0xFFFFFFFFFFFFFFFFFFFFFFFFFFFFFFFFFFFFFFFF MUL NOT AND SWAP1 DUP4 PUSH20 0xFFFFFFFFFFFFFFFFFFFFFFFFFFFFFFFFFFFFFFFF AND MUL OR SWAP1 SSTORE POP CALLER PUSH20 0xFFFFFFFFFFFFFFFFFFFFFFFFFFFFFFFFFFFFFFFF AND DUP2 PUSH20 0xFFFFFFFFFFFFFFFFFFFFFFFFFFFFFFFFFFFFFFFF AND PUSH32 0x8BE0079C531659141344CD1FD0A4F28419497F9722A3DAAFE3B4186F6B6457E0 PUSH1 0x40 MLOAD PUSH1 0x40 MLOAD DUP1 SWAP2 SUB SWAP1 LOG3 POP JUMP JUMPDEST PUSH1 0x8 PUSH1 0x0 SWAP1 SLOAD SWAP1 PUSH2 0x100 EXP SWAP1 DIV PUSH20 0xFFFFFFFFFFFFFFFFFFFFFFFFFFFFFFFFFFFFFFFF AND DUP2 JUMP JUMPDEST PUSH1 0x0 DUP1 PUSH2 0x6A1 PUSH1 0xF SLOAD ADDRESS PUSH4 0xBDA71D04 PUSH1 0xE0 SHL PUSH2 0xD44 JUMP JUMPDEST SWAP1 POP PUSH2 0x705 PUSH1 0x40 MLOAD DUP1 PUSH1 0x40 ADD PUSH1 0x40 MSTORE DUP1 PUSH1 0x3 DUP2 MSTORE PUSH1 0x20 ADD PUSH32 0x6765740000000000000000000000000000000000000000000000000000000000 DUP2 MSTORE POP PUSH1 0x40 MLOAD DUP1 PUSH1 0x60 ADD PUSH1 0x40 MSTORE DUP1 PUSH1 0x2E DUP2 MSTORE PUSH1 0x20 ADD PUSH2 0x2BDF PUSH1 0x2E SWAP2 CODECOPY DUP4 PUSH2 0xD75 SWAP1 SWAP3 SWAP2 SWAP1 PUSH4 0xFFFFFFFF AND JUMP JUMPDEST PUSH2 0x757 PUSH1 0x40 MLOAD DUP1 PUSH1 0x40 ADD PUSH1 0x40 MSTORE DUP1 PUSH1 0x2 DUP2 MSTORE PUSH1 0x20 ADD PUSH32 0x6964000000000000000000000000000000000000000000000000000000000000 DUP2 MSTORE POP PUSH2 0x747 DUP6 PUSH2 0xDA8 JUMP JUMPDEST DUP4 PUSH2 0xD75 SWAP1 SWAP3 SWAP2 SWAP1 PUSH4 0xFFFFFFFF AND JUMP JUMPDEST PUSH2 0x763 DUP2 PUSH1 0x10 SLOAD PUSH2 0xE76 JUMP JUMPDEST SWAP2 POP POP SWAP2 SWAP1 POP JUMP JUMPDEST PUSH1 0x0 PUSH1 0x6 PUSH1 0x0 SWAP1 SLOAD SWAP1 PUSH2 0x100 EXP SWAP1 DIV PUSH20 0xFFFFFFFFFFFFFFFFFFFFFFFFFFFFFFFFFFFFFFFF AND SWAP1 POP SWAP1 JUMP JUMPDEST CALLER PUSH20 0xFFFFFFFFFFFFFFFFFFFFFFFFFFFFFFFFFFFFFFFF AND PUSH1 0x8 PUSH1 0x0 SWAP1 SLOAD SWAP1 PUSH2 0x100 EXP SWAP1 DIV PUSH20 0xFFFFFFFFFFFFFFFFFFFFFFFFFFFFFFFFFFFFFFFF AND PUSH20 0xFFFFFFFFFFFFFFFFFFFFFFFFFFFFFFFFFFFFFFFF AND EQ PUSH2 0x825 JUMPI PUSH1 0x40 MLOAD PUSH32 0x8C379A000000000000000000000000000000000000000000000000000000000 DUP2 MSTORE PUSH1 0x4 ADD PUSH2 0x81C SWAP1 PUSH2 0x229B JUMP JUMPDEST PUSH1 0x40 MLOAD DUP1 SWAP2 SUB SWAP1 REVERT JUMPDEST PUSH1 0x1 PUSH1 0xB PUSH1 0x0 DUP5 DUP2 MSTORE PUSH1 0x20 ADD SWAP1 DUP2 MSTORE PUSH1 0x20 ADD PUSH1 0x0 KECCAK256 PUSH1 0x0 PUSH2 0x100 EXP DUP2 SLOAD DUP2 PUSH1 0xFF MUL NOT AND SWAP1 DUP4 ISZERO ISZERO MUL OR SWAP1 SSTORE POP DUP1 PUSH1 0xA PUSH1 0x0 DUP5 DUP2 MSTORE PUSH1 0x20 ADD SWAP1 DUP2 MSTORE PUSH1 0x20 ADD PUSH1 0x0 KECCAK256 PUSH1 0x0 PUSH2 0x100 EXP DUP2 SLOAD DUP2 PUSH1 0xFF MUL NOT AND SWAP1 DUP4 ISZERO ISZERO MUL OR SWAP1 SSTORE POP POP POP JUMP JUMPDEST PUSH1 0x0 ISZERO ISZERO PUSH1 0xB PUSH1 0x0 DUP5 DUP2 MSTORE PUSH1 0x20 ADD SWAP1 DUP2 MSTORE PUSH1 0x20 ADD PUSH1 0x0 KECCAK256 PUSH1 0x0 SWAP1 SLOAD SWAP1 PUSH2 0x100 EXP SWAP1 DIV PUSH1 0xFF AND ISZERO ISZERO EQ PUSH2 0x8E7 JUMPI PUSH1 0x40 MLOAD PUSH32 0x8C379A000000000000000000000000000000000000000000000000000000000 DUP2 MSTORE PUSH1 0x4 ADD PUSH2 0x8DE SWAP1 PUSH2 0x2307 JUMP JUMPDEST PUSH1 0x40 MLOAD DUP1 SWAP2 SUB SWAP1 REVERT JUMPDEST PUSH1 0xC PUSH1 0x0 CALLER PUSH20 0xFFFFFFFFFFFFFFFFFFFFFFFFFFFFFFFFFFFFFFFF AND PUSH20 0xFFFFFFFFFFFFFFFFFFFFFFFFFFFFFFFFFFFFFFFF AND DUP2 MSTORE PUSH1 0x20 ADD SWAP1 DUP2 MSTORE PUSH1 0x20 ADD PUSH1 0x0 KECCAK256 PUSH1 0x40 MLOAD DUP1 PUSH1 0xA0 ADD PUSH1 0x40 MSTORE DUP1 CALLER PUSH20 0xFFFFFFFFFFFFFFFFFFFFFFFFFFFFFFFFFFFFFFFF AND DUP2 MSTORE PUSH1 0x20 ADD CALLVALUE DUP2 MSTORE PUSH1 0x20 ADD DUP5 DUP2 MSTORE PUSH1 0x20 ADD DUP4 ISZERO ISZERO DUP2 MSTORE PUSH1 0x20 ADD PUSH1 0x1 ISZERO ISZERO DUP2 MSTORE POP SWAP1 DUP1 PUSH1 0x1 DUP2 SLOAD ADD DUP1 DUP3 SSTORE DUP1 SWAP2 POP POP PUSH1 0x1 SWAP1 SUB SWAP1 PUSH1 0x0 MSTORE PUSH1 0x20 PUSH1 0x0 KECCAK256 SWAP1 PUSH1 0x4 MUL ADD PUSH1 0x0 SWAP1 SWAP2 SWAP1 SWAP2 SWAP1 SWAP2 POP PUSH1 0x0 DUP3 ADD MLOAD DUP2 PUSH1 0x0 ADD PUSH1 0x0 PUSH2 0x100 EXP DUP2 SLOAD DUP2 PUSH20 0xFFFFFFFFFFFFFFFFFFFFFFFFFFFFFFFFFFFFFFFF MUL NOT AND SWAP1 DUP4 PUSH20 0xFFFFFFFFFFFFFFFFFFFFFFFFFFFFFFFFFFFFFFFF AND MUL OR SWAP1 SSTORE POP PUSH1 0x20 DUP3 ADD MLOAD DUP2 PUSH1 0x1 ADD SSTORE PUSH1 0x40 DUP3 ADD MLOAD DUP2 PUSH1 0x2 ADD SSTORE PUSH1 0x60 DUP3 ADD MLOAD DUP2 PUSH1 0x3 ADD PUSH1 0x0 PUSH2 0x100 EXP DUP2 SLOAD DUP2 PUSH1 0xFF MUL NOT AND SWAP1 DUP4 ISZERO ISZERO MUL OR SWAP1 SSTORE POP PUSH1 0x80 DUP3 ADD MLOAD DUP2 PUSH1 0x3 ADD PUSH1 0x1 PUSH2 0x100 EXP DUP2 SLOAD DUP2 PUSH1 0xFF MUL NOT AND SWAP1 DUP4 ISZERO ISZERO MUL OR SWAP1 SSTORE POP POP POP CALLVALUE PUSH1 0x9 PUSH1 0x0 DUP5 DUP2 MSTORE PUSH1 0x20 ADD SWAP1 DUP2 MSTORE PUSH1 0x20 ADD PUSH1 0x0 KECCAK256 PUSH1 0x0 DUP4 ISZERO ISZERO ISZERO ISZERO DUP2 MSTORE PUSH1 0x20 ADD SWAP1 DUP2 MSTORE PUSH1 0x20 ADD PUSH1 0x0 KECCAK256 PUSH1 0x0 DUP3 DUP3 SLOAD PUSH2 0xA66 SWAP2 SWAP1 PUSH2 0x2356 JUMP JUMPDEST SWAP3 POP POP DUP2 SWAP1 SSTORE POP PUSH1 0xD PUSH1 0x0 DUP4 DUP2 MSTORE PUSH1 0x20 ADD SWAP1 DUP2 MSTORE PUSH1 0x20 ADD PUSH1 0x0 KECCAK256 CALLER SWAP1 DUP1 PUSH1 0x1 DUP2 SLOAD ADD DUP1 DUP3 SSTORE DUP1 SWAP2 POP POP PUSH1 0x1 SWAP1 SUB SWAP1 PUSH1 0x0 MSTORE PUSH1 0x20 PUSH1 0x0 KECCAK256 ADD PUSH1 0x0 SWAP1 SWAP2 SWAP1 SWAP2 SWAP1 SWAP2 PUSH2 0x100 EXP DUP2 SLOAD DUP2 PUSH20 0xFFFFFFFFFFFFFFFFFFFFFFFFFFFFFFFFFFFFFFFF MUL NOT AND SWAP1 DUP4 PUSH20 0xFFFFFFFFFFFFFFFFFFFFFFFFFFFFFFFFFFFFFFFF AND MUL OR SWAP1 SSTORE POP POP POP JUMP JUMPDEST DUP2 PUSH1 0x5 PUSH1 0x0 DUP3 DUP2 MSTORE PUSH1 0x20 ADD SWAP1 DUP2 MSTORE PUSH1 0x20 ADD PUSH1 0x0 KECCAK256 PUSH1 0x0 SWAP1 SLOAD SWAP1 PUSH2 0x100 EXP SWAP1 DIV PUSH20 0xFFFFFFFFFFFFFFFFFFFFFFFFFFFFFFFFFFFFFFFF AND PUSH20 0xFFFFFFFFFFFFFFFFFFFFFFFFFFFFFFFFFFFFFFFF AND CALLER PUSH20 0xFFFFFFFFFFFFFFFFFFFFFFFFFFFFFFFFFFFFFFFF AND EQ PUSH2 0xB87 JUMPI PUSH1 0x40 MLOAD PUSH32 0x8C379A000000000000000000000000000000000000000000000000000000000 DUP2 MSTORE PUSH1 0x4 ADD PUSH2 0xB7E SWAP1 PUSH2 0x23FC JUMP JUMPDEST PUSH1 0x40 MLOAD DUP1 SWAP2 SUB SWAP1 REVERT JUMPDEST PUSH1 0x5 PUSH1 0x0 DUP3 DUP2 MSTORE PUSH1 0x20 ADD SWAP1 DUP2 MSTORE PUSH1 0x20 ADD PUSH1 0x0 KECCAK256 PUSH1 0x0 PUSH2 0x100 EXP DUP2 SLOAD SWAP1 PUSH20 0xFFFFFFFFFFFFFFFFFFFFFFFFFFFFFFFFFFFFFFFF MUL NOT AND SWAP1 SSTORE DUP1 PUSH32 0x7CC135E0CEBB02C3480AE5D74D377283180A2601F8F644EDF7987B009316C63A PUSH1 0x40 MLOAD PUSH1 0x40 MLOAD DUP1 SWAP2 SUB SWAP1 LOG2 PUSH1 0x0 DUP3 SUB ISZERO PUSH2 0xD00 JUMPI PUSH1 0x0 DUP3 SLT ISZERO PUSH2 0xC95 JUMPI PUSH1 0x0 PUSH32 0xFFFFFFFFFFFFFFFFFFFFFFFFFFFFFFFFFFFFFFFFFFFFFFFFFFFFFFFFFFFFFFFF DUP4 PUSH2 0xC2A SWAP2 SWAP1 PUSH2 0x241C JUMP JUMPDEST SWAP1 POP PUSH1 0x1 PUSH1 0xB PUSH1 0x0 DUP4 DUP2 MSTORE PUSH1 0x20 ADD SWAP1 DUP2 MSTORE PUSH1 0x20 ADD PUSH1 0x0 KECCAK256 PUSH1 0x0 PUSH2 0x100 EXP DUP2 SLOAD DUP2 PUSH1 0xFF MUL NOT AND SWAP1 DUP4 ISZERO ISZERO MUL OR SWAP1 SSTORE POP PUSH1 0x0 PUSH1 0xA PUSH1 0x0 DUP4 DUP2 MSTORE PUSH1 0x20 ADD SWAP1 DUP2 MSTORE PUSH1 0x20 ADD PUSH1 0x0 KECCAK256 PUSH1 0x0 PUSH2 0x100 EXP DUP2 SLOAD DUP2 PUSH1 0xFF MUL NOT AND SWAP1 DUP4 ISZERO ISZERO MUL OR SWAP1 SSTORE POP PUSH2 0xC8F DUP2 PUSH1 0x0 PUSH2 0xEAD JUMP JUMPDEST POP PUSH2 0xCFF JUMP JUMPDEST PUSH1 0x0 DUP3 SWAP1 POP PUSH1 0x1 PUSH1 0xB PUSH1 0x0 DUP4 DUP2 MSTORE PUSH1 0x20 ADD SWAP1 DUP2 MSTORE PUSH1 0x20 ADD PUSH1 0x0 KECCAK256 PUSH1 0x0 PUSH2 0x100 EXP DUP2 SLOAD DUP2 PUSH1 0xFF MUL NOT AND SWAP1 DUP4 ISZERO ISZERO MUL OR SWAP1 SSTORE POP PUSH1 0x1 PUSH1 0xA PUSH1 0x0 DUP4 DUP2 MSTORE PUSH1 0x20 ADD SWAP1 DUP2 MSTORE PUSH1 0x20 ADD PUSH1 0x0 KECCAK256 PUSH1 0x0 PUSH2 0x100 EXP DUP2 SLOAD DUP2 PUSH1 0xFF MUL NOT AND SWAP1 DUP4 ISZERO ISZERO MUL OR SWAP1 SSTORE POP PUSH2 0xCFD DUP2 PUSH1 0x1 PUSH2 0xEAD JUMP JUMPDEST POP JUMPDEST JUMPDEST POP POP POP JUMP JUMPDEST PUSH1 0xE SLOAD DUP2 JUMP JUMPDEST PUSH1 0x9 PUSH1 0x20 MSTORE DUP2 PUSH1 0x0 MSTORE PUSH1 0x40 PUSH1 0x0 KECCAK256 PUSH1 0x20 MSTORE DUP1 PUSH1 0x0 MSTORE PUSH1 0x40 PUSH1 0x0 KECCAK256 PUSH1 0x0 SWAP2 POP SWAP2 POP POP SLOAD DUP2 JUMP JUMPDEST PUSH2 0xD38 PUSH2 0x11FB JUMP JUMPDEST PUSH2 0xD41 DUP2 PUSH2 0x128D JUMP JUMPDEST POP JUMP JUMPDEST PUSH2 0xD4C PUSH2 0x1CAA JUMP JUMPDEST PUSH2 0xD54 PUSH2 0x1CAA JUMP JUMPDEST PUSH2 0xD6B DUP6 DUP6 DUP6 DUP5 PUSH2 0x13BB SWAP1 SWAP4 SWAP3 SWAP2 SWAP1 PUSH4 0xFFFFFFFF AND JUMP JUMPDEST SWAP2 POP POP SWAP4 SWAP3 POP POP POP JUMP JUMPDEST PUSH2 0xD8C DUP3 DUP5 PUSH1 0x80 ADD MLOAD PUSH2 0x146B SWAP1 SWAP2 SWAP1 PUSH4 0xFFFFFFFF AND JUMP JUMPDEST PUSH2 0xDA3 DUP2 DUP5 PUSH1 0x80 ADD MLOAD PUSH2 0x146B SWAP1 SWAP2 SWAP1 PUSH4 0xFFFFFFFF AND JUMP JUMPDEST POP POP POP JUMP JUMPDEST PUSH1 0x60 PUSH1 0x0 PUSH1 0x1 PUSH2 0xDB7 DUP5 PUSH2 0x1490 JUMP JUMPDEST ADD SWAP1 POP PUSH1 0x0 DUP2 PUSH8 0xFFFFFFFFFFFFFFFF DUP2 GT ISZERO PUSH2 0xDD6 JUMPI PUSH2 0xDD5 PUSH2 0x2494 JUMP JUMPDEST JUMPDEST PUSH1 0x40 MLOAD SWAP1 DUP1 DUP3 MSTORE DUP1 PUSH1 0x1F ADD PUSH1 0x1F NOT AND PUSH1 0x20 ADD DUP3 ADD PUSH1 0x40 MSTORE DUP1 ISZERO PUSH2 0xE08 JUMPI DUP2 PUSH1 0x20 ADD PUSH1 0x1 DUP3 MUL DUP1 CALLDATASIZE DUP4 CALLDATACOPY DUP1 DUP3 ADD SWAP2 POP POP SWAP1 POP JUMPDEST POP SWAP1 POP PUSH1 0x0 DUP3 PUSH1 0x20 ADD DUP3 ADD SWAP1 POP JUMPDEST PUSH1 0x1 ISZERO PUSH2 0xE6B JUMPI DUP1 DUP1 PUSH1 0x1 SWAP1 SUB SWAP2 POP POP PUSH32 0x3031323334353637383961626364656600000000000000000000000000000000 PUSH1 0xA DUP7 MOD BYTE DUP2 MSTORE8 PUSH1 0xA DUP6 DUP2 PUSH2 0xE5F JUMPI PUSH2 0xE5E PUSH2 0x24C3 JUMP JUMPDEST JUMPDEST DIV SWAP5 POP PUSH1 0x0 DUP6 SUB PUSH2 0xE16 JUMPI JUMPDEST DUP2 SWAP4 POP POP POP POP SWAP2 SWAP1 POP JUMP JUMPDEST PUSH1 0x0 PUSH2 0xEA5 PUSH1 0x3 PUSH1 0x0 SWAP1 SLOAD SWAP1 PUSH2 0x100 EXP SWAP1 DIV PUSH20 0xFFFFFFFFFFFFFFFFFFFFFFFFFFFFFFFFFFFFFFFF AND DUP5 DUP5 PUSH2 0x15E3 JUMP JUMPDEST SWAP1 POP SWAP3 SWAP2 POP POP JUMP JUMPDEST PUSH2 0xEB5 PUSH2 0x1D17 JUMP JUMPDEST PUSH1 0x0 JUMPDEST PUSH1 0xD PUSH1 0x0 DUP6 DUP2 MSTORE PUSH1 0x20 ADD SWAP1 DUP2 MSTORE PUSH1 0x20 ADD PUSH1 0x0 KECCAK256 DUP1 SLOAD SWAP1 POP DUP2 LT ISZERO PUSH2 0x11F5 JUMPI PUSH1 0x0 PUSH1 0xD PUSH1 0x0 DUP7 DUP2 MSTORE PUSH1 0x20 ADD SWAP1 DUP2 MSTORE PUSH1 0x20 ADD PUSH1 0x0 KECCAK256 DUP3 DUP2 SLOAD DUP2 LT PUSH2 0xEFD JUMPI PUSH2 0xEFC PUSH2 0x24F2 JUMP JUMPDEST JUMPDEST SWAP1 PUSH1 0x0 MSTORE PUSH1 0x20 PUSH1 0x0 KECCAK256 ADD PUSH1 0x0 SWAP1 SLOAD SWAP1 PUSH2 0x100 EXP SWAP1 DIV PUSH20 0xFFFFFFFFFFFFFFFFFFFFFFFFFFFFFFFFFFFFFFFF AND SWAP1 POP PUSH1 0x0 JUMPDEST PUSH1 0xC PUSH1 0x0 DUP4 PUSH20 0xFFFFFFFFFFFFFFFFFFFFFFFFFFFFFFFFFFFFFFFF AND PUSH20 0xFFFFFFFFFFFFFFFFFFFFFFFFFFFFFFFFFFFFFFFF AND DUP2 MSTORE PUSH1 0x20 ADD SWAP1 DUP2 MSTORE PUSH1 0x20 ADD PUSH1 0x0 KECCAK256 DUP1 SLOAD SWAP1 POP DUP2 LT ISZERO PUSH2 0x1100 JUMPI DUP6 PUSH1 0xC PUSH1 0x0 DUP5 PUSH20 0xFFFFFFFFFFFFFFFFFFFFFFFFFFFFFFFFFFFFFFFF AND PUSH20 0xFFFFFFFFFFFFFFFFFFFFFFFFFFFFFFFFFFFFFFFF AND DUP2 MSTORE PUSH1 0x20 ADD SWAP1 DUP2 MSTORE PUSH1 0x20 ADD PUSH1 0x0 KECCAK256 DUP3 DUP2 SLOAD DUP2 LT PUSH2 0xFC9 JUMPI PUSH2 0xFC8 PUSH2 0x24F2 JUMP JUMPDEST JUMPDEST SWAP1 PUSH1 0x0 MSTORE PUSH1 0x20 PUSH1 0x0 KECCAK256 SWAP1 PUSH1 0x4 MUL ADD PUSH1 0x2 ADD SLOAD SUB PUSH2 0x10ED JUMPI PUSH1 0xC PUSH1 0x0 DUP4 PUSH20 0xFFFFFFFFFFFFFFFFFFFFFFFFFFFFFFFFFFFFFFFF AND PUSH20 0xFFFFFFFFFFFFFFFFFFFFFFFFFFFFFFFFFFFFFFFF AND DUP2 MSTORE PUSH1 0x20 ADD SWAP1 DUP2 MSTORE PUSH1 0x20 ADD PUSH1 0x0 KECCAK256 DUP2 DUP2 SLOAD DUP2 LT PUSH2 0x1031 JUMPI PUSH2 0x1030 PUSH2 0x24F2 JUMP JUMPDEST JUMPDEST SWAP1 PUSH1 0x0 MSTORE PUSH1 0x20 PUSH1 0x0 KECCAK256 SWAP1 PUSH1 0x4 MUL ADD PUSH1 0x40 MLOAD DUP1 PUSH1 0xA0 ADD PUSH1 0x40 MSTORE SWAP1 DUP2 PUSH1 0x0 DUP3 ADD PUSH1 0x0 SWAP1 SLOAD SWAP1 PUSH2 0x100 EXP SWAP1 DIV PUSH20 0xFFFFFFFFFFFFFFFFFFFFFFFFFFFFFFFFFFFFFFFF AND PUSH20 0xFFFFFFFFFFFFFFFFFFFFFFFFFFFFFFFFFFFFFFFF AND PUSH20 0xFFFFFFFFFFFFFFFFFFFFFFFFFFFFFFFFFFFFFFFF AND DUP2 MSTORE PUSH1 0x20 ADD PUSH1 0x1 DUP3 ADD SLOAD DUP2 MSTORE PUSH1 0x20 ADD PUSH1 0x2 DUP3 ADD SLOAD DUP2 MSTORE PUSH1 0x20 ADD PUSH1 0x3 DUP3 ADD PUSH1 0x0 SWAP1 SLOAD SWAP1 PUSH2 0x100 EXP SWAP1 DIV PUSH1 0xFF AND ISZERO ISZERO ISZERO ISZERO DUP2 MSTORE PUSH1 0x20 ADD PUSH1 0x3 DUP3 ADD PUSH1 0x1 SWAP1 SLOAD SWAP1 PUSH2 0x100 EXP SWAP1 DIV PUSH1 0xFF AND ISZERO ISZERO ISZERO ISZERO DUP2 MSTORE POP POP SWAP4 POP JUMPDEST DUP1 DUP1 PUSH2 0x10F8 SWAP1 PUSH2 0x2521 JUMP JUMPDEST SWAP2 POP POP PUSH2 0xF2D JUMP JUMPDEST POP PUSH1 0x0 DUP5 ISZERO ISZERO DUP5 PUSH1 0x60 ADD MLOAD ISZERO ISZERO SUB PUSH2 0x1194 JUMPI PUSH1 0x9 PUSH1 0x0 DUP8 DUP2 MSTORE PUSH1 0x20 ADD SWAP1 DUP2 MSTORE PUSH1 0x20 ADD PUSH1 0x0 KECCAK256 PUSH1 0x0 DUP7 ISZERO ISZERO ISZERO ISZERO DUP2 MSTORE PUSH1 0x20 ADD SWAP1 DUP2 MSTORE PUSH1 0x20 ADD PUSH1 0x0 KECCAK256 SLOAD DUP5 PUSH1 0x20 ADD MLOAD PUSH1 0x9 PUSH1 0x0 DUP10 DUP2 MSTORE PUSH1 0x20 ADD SWAP1 DUP2 MSTORE PUSH1 0x20 ADD PUSH1 0x0 KECCAK256 PUSH1 0x0 DUP9 ISZERO ISZERO ISZERO ISZERO ISZERO DUP2 MSTORE PUSH1 0x20 ADD SWAP1 DUP2 MSTORE PUSH1 0x20 ADD PUSH1 0x0 KECCAK256 SLOAD PUSH2 0x1174 SWAP2 SWAP1 PUSH2 0x2569 JUMP JUMPDEST PUSH2 0x117E SWAP2 SWAP1 PUSH2 0x25AB JUMP JUMPDEST DUP5 PUSH1 0x20 ADD MLOAD PUSH2 0x118D SWAP2 SWAP1 PUSH2 0x2356 JUMP JUMPDEST SWAP1 POP PUSH2 0x1199 JUMP JUMPDEST PUSH1 0x0 SWAP1 POP JUMPDEST DUP2 PUSH20 0xFFFFFFFFFFFFFFFFFFFFFFFFFFFFFFFFFFFFFFFF AND PUSH2 0x8FC DUP3 SWAP1 DUP2 ISZERO MUL SWAP1 PUSH1 0x40 MLOAD PUSH1 0x0 PUSH1 0x40 MLOAD DUP1 DUP4 SUB DUP2 DUP6 DUP9 DUP9 CALL SWAP4 POP POP POP POP ISZERO DUP1 ISZERO PUSH2 0x11DF JUMPI RETURNDATASIZE PUSH1 0x0 DUP1 RETURNDATACOPY RETURNDATASIZE PUSH1 0x0 REVERT JUMPDEST POP POP POP DUP1 DUP1 PUSH2 0x11ED SWAP1 PUSH2 0x2521 JUMP JUMPDEST SWAP2 POP POP PUSH2 0xEB8 JUMP JUMPDEST POP POP POP POP JUMP JUMPDEST PUSH1 0x6 PUSH1 0x0 SWAP1 SLOAD SWAP1 PUSH2 0x100 EXP SWAP1 DIV PUSH20 0xFFFFFFFFFFFFFFFFFFFFFFFFFFFFFFFFFFFFFFFF AND PUSH20 0xFFFFFFFFFFFFFFFFFFFFFFFFFFFFFFFFFFFFFFFF AND CALLER PUSH20 0xFFFFFFFFFFFFFFFFFFFFFFFFFFFFFFFFFFFFFFFF AND EQ PUSH2 0x128B JUMPI PUSH1 0x40 MLOAD PUSH32 0x8C379A000000000000000000000000000000000000000000000000000000000 DUP2 MSTORE PUSH1 0x4 ADD PUSH2 0x1282 SWAP1 PUSH2 0x2628 JUMP JUMPDEST PUSH1 0x40 MLOAD DUP1 SWAP2 SUB SWAP1 REVERT JUMPDEST JUMP JUMPDEST CALLER PUSH20 0xFFFFFFFFFFFFFFFFFFFFFFFFFFFFFFFFFFFFFFFF AND DUP2 PUSH20 0xFFFFFFFFFFFFFFFFFFFFFFFFFFFFFFFFFFFFFFFF AND SUB PUSH2 0x12FB JUMPI PUSH1 0x40 MLOAD PUSH32 0x8C379A000000000000000000000000000000000000000000000000000000000 DUP2 MSTORE PUSH1 0x4 ADD PUSH2 0x12F2 SWAP1 PUSH2 0x2694 JUMP JUMPDEST PUSH1 0x40 MLOAD DUP1 SWAP2 SUB SWAP1 REVERT JUMPDEST DUP1 PUSH1 0x7 PUSH1 0x0 PUSH2 0x100 EXP DUP2 SLOAD DUP2 PUSH20 0xFFFFFFFFFFFFFFFFFFFFFFFFFFFFFFFFFFFFFFFF MUL NOT AND SWAP1 DUP4 PUSH20 0xFFFFFFFFFFFFFFFFFFFFFFFFFFFFFFFFFFFFFFFF AND MUL OR SWAP1 SSTORE POP DUP1 PUSH20 0xFFFFFFFFFFFFFFFFFFFFFFFFFFFFFFFFFFFFFFFF AND PUSH1 0x6 PUSH1 0x0 SWAP1 SLOAD SWAP1 PUSH2 0x100 EXP SWAP1 DIV PUSH20 0xFFFFFFFFFFFFFFFFFFFFFFFFFFFFFFFFFFFFFFFF AND PUSH20 0xFFFFFFFFFFFFFFFFFFFFFFFFFFFFFFFFFFFFFFFF AND PUSH32 0xED8889F560326EB138920D842192F0EB3DD22B4F139C87A2C57538E05BAE1278 PUSH1 0x40 MLOAD PUSH1 0x40 MLOAD DUP1 SWAP2 SUB SWAP1 LOG3 POP JUMP JUMPDEST PUSH2 0x13C3 PUSH2 0x1CAA JUMP JUMPDEST PUSH2 0x13D3 DUP6 PUSH1 0x80 ADD MLOAD PUSH2 0x100 PUSH2 0x16AF JUMP JUMPDEST POP DUP4 DUP6 PUSH1 0x0 ADD DUP2 DUP2 MSTORE POP POP DUP3 DUP6 PUSH1 0x20 ADD SWAP1 PUSH20 0xFFFFFFFFFFFFFFFFFFFFFFFFFFFFFFFFFFFFFFFF AND SWAP1 DUP2 PUSH20 0xFFFFFFFFFFFFFFFFFFFFFFFFFFFFFFFFFFFFFFFF AND DUP2 MSTORE POP POP DUP2 DUP6 PUSH1 0x40 ADD SWAP1 PUSH28 0xFFFFFFFFFFFFFFFFFFFFFFFFFFFFFFFFFFFFFFFFFFFFFFFFFFFFFFFF NOT AND SWAP1 DUP2 PUSH28 0xFFFFFFFFFFFFFFFFFFFFFFFFFFFFFFFFFFFFFFFFFFFFFFFFFFFFFFFF NOT AND DUP2 MSTORE POP POP DUP5 SWAP1 POP SWAP5 SWAP4 POP POP POP POP JUMP JUMPDEST PUSH2 0x1478 DUP3 PUSH1 0x3 DUP4 MLOAD PUSH2 0x1719 JUMP JUMPDEST PUSH2 0x148B DUP2 DUP4 PUSH2 0x189E SWAP1 SWAP2 SWAP1 PUSH4 0xFFFFFFFF AND JUMP JUMPDEST POP POP POP JUMP JUMPDEST PUSH1 0x0 DUP1 PUSH1 0x0 SWAP1 POP PUSH27 0x184F03E93FF9F4DAA797ED6E38ED64BF6A1F010000000000000000 DUP4 LT PUSH2 0x14EE JUMPI PUSH27 0x184F03E93FF9F4DAA797ED6E38ED64BF6A1F010000000000000000 DUP4 DUP2 PUSH2 0x14E4 JUMPI PUSH2 0x14E3 PUSH2 0x24C3 JUMP JUMPDEST JUMPDEST DIV SWAP3 POP PUSH1 0x40 DUP2 ADD SWAP1 POP JUMPDEST PUSH14 0x4EE2D6D415B85ACEF8100000000 DUP4 LT PUSH2 0x152B JUMPI PUSH14 0x4EE2D6D415B85ACEF8100000000 DUP4 DUP2 PUSH2 0x1521 JUMPI PUSH2 0x1520 PUSH2 0x24C3 JUMP JUMPDEST JUMPDEST DIV SWAP3 POP PUSH1 0x20 DUP2 ADD SWAP1 POP JUMPDEST PUSH7 0x2386F26FC10000 DUP4 LT PUSH2 0x155A JUMPI PUSH7 0x2386F26FC10000 DUP4 DUP2 PUSH2 0x1550 JUMPI PUSH2 0x154F PUSH2 0x24C3 JUMP JUMPDEST JUMPDEST DIV SWAP3 POP PUSH1 0x10 DUP2 ADD SWAP1 POP JUMPDEST PUSH4 0x5F5E100 DUP4 LT PUSH2 0x1583 JUMPI PUSH4 0x5F5E100 DUP4 DUP2 PUSH2 0x1579 JUMPI PUSH2 0x1578 PUSH2 0x24C3 JUMP JUMPDEST JUMPDEST DIV SWAP3 POP PUSH1 0x8 DUP2 ADD SWAP1 POP JUMPDEST PUSH2 0x2710 DUP4 LT PUSH2 0x15A8 JUMPI PUSH2 0x2710 DUP4 DUP2 PUSH2 0x159E JUMPI PUSH2 0x159D PUSH2 0x24C3 JUMP JUMPDEST JUMPDEST DIV SWAP3 POP PUSH1 0x4 DUP2 ADD SWAP1 POP JUMPDEST PUSH1 0x64 DUP4 LT PUSH2 0x15CB JUMPI PUSH1 0x64 DUP4 DUP2 PUSH2 0x15C1 JUMPI PUSH2 0x15C0 PUSH2 0x24C3 JUMP JUMPDEST JUMPDEST DIV SWAP3 POP PUSH1 0x2 DUP2 ADD SWAP1 POP JUMPDEST PUSH1 0xA DUP4 LT PUSH2 0x15DA JUMPI PUSH1 0x1 DUP2 ADD SWAP1 POP JUMPDEST DUP1 SWAP2 POP POP SWAP2 SWAP1 POP JUMP JUMPDEST PUSH1 0x0 DUP1 PUSH1 0x4 SLOAD SWAP1 POP PUSH1 0x1 DUP2 PUSH2 0x15F8 SWAP2 SWAP1 PUSH2 0x2356 JUMP JUMPDEST PUSH1 0x4 DUP2 SWAP1 SSTORE POP PUSH1 0x0 PUSH4 0x40429946 PUSH1 0xE0 SHL PUSH1 0x0 DUP1 DUP8 PUSH1 0x0 ADD MLOAD ADDRESS DUP10 PUSH1 0x40 ADD MLOAD DUP8 PUSH1 0x1 DUP13 PUSH1 0x80 ADD MLOAD PUSH1 0x0 ADD MLOAD PUSH1 0x40 MLOAD PUSH1 0x24 ADD PUSH2 0x1639 SWAP9 SWAP8 SWAP7 SWAP6 SWAP5 SWAP4 SWAP3 SWAP2 SWAP1 PUSH2 0x277F JUMP JUMPDEST PUSH1 0x40 MLOAD PUSH1 0x20 DUP2 DUP4 SUB SUB DUP2 MSTORE SWAP1 PUSH1 0x40 MSTORE SWAP1 PUSH28 0xFFFFFFFFFFFFFFFFFFFFFFFFFFFFFFFFFFFFFFFFFFFFFFFFFFFFFFFF NOT AND PUSH1 0x20 DUP3 ADD DUP1 MLOAD PUSH28 0xFFFFFFFFFFFFFFFFFFFFFFFFFFFFFFFFFFFFFFFFFFFFFFFFFFFFFFFF DUP4 DUP2 DUP4 AND OR DUP4 MSTORE POP POP POP POP SWAP1 POP PUSH2 0x16A4 DUP7 DUP4 DUP7 DUP5 PUSH2 0x18C0 JUMP JUMPDEST SWAP3 POP POP POP SWAP4 SWAP3 POP POP POP JUMP JUMPDEST PUSH2 0x16B7 PUSH2 0x1D60 JUMP JUMPDEST PUSH1 0x0 PUSH1 0x20 DUP4 PUSH2 0x16C6 SWAP2 SWAP1 PUSH2 0x2804 JUMP JUMPDEST EQ PUSH2 0x16F2 JUMPI PUSH1 0x20 DUP3 PUSH2 0x16D8 SWAP2 SWAP1 PUSH2 0x2804 JUMP JUMPDEST PUSH1 0x20 PUSH2 0x16E4 SWAP2 SWAP1 PUSH2 0x2835 JUMP JUMPDEST DUP3 PUSH2 0x16EF SWAP2 SWAP1 PUSH2 0x2356 JUMP JUMPDEST SWAP2 POP JUMPDEST DUP2 DUP4 PUSH1 0x20 ADD DUP2 DUP2 MSTORE POP POP PUSH1 0x40 MLOAD DUP1 DUP5 MSTORE PUSH1 0x0 DUP2 MSTORE DUP3 DUP2 ADD PUSH1 0x20 ADD PUSH1 0x40 MSTORE POP DUP3 SWAP1 POP SWAP3 SWAP2 POP POP JUMP JUMPDEST PUSH1 0x17 DUP2 PUSH8 0xFFFFFFFFFFFFFFFF AND GT PUSH2 0x1750 JUMPI PUSH2 0x174A DUP2 PUSH1 0x5 DUP5 PUSH1 0xFF AND SWAP1 SHL PUSH1 0xFF AND OR DUP5 PUSH2 0x1A55 SWAP1 SWAP2 SWAP1 PUSH4 0xFFFFFFFF AND JUMP JUMPDEST POP PUSH2 0x1899 JUMP JUMPDEST PUSH1 0xFF DUP2 PUSH8 0xFFFFFFFFFFFFFFFF AND GT PUSH2 0x17A6 JUMPI PUSH2 0x177F PUSH1 0x18 PUSH1 0x5 DUP5 PUSH1 0xFF AND SWAP1 SHL OR DUP5 PUSH2 0x1A55 SWAP1 SWAP2 SWAP1 PUSH4 0xFFFFFFFF AND JUMP JUMPDEST POP PUSH2 0x17A0 DUP2 PUSH8 0xFFFFFFFFFFFFFFFF AND PUSH1 0x1 DUP6 PUSH2 0x1A75 SWAP1 SWAP3 SWAP2 SWAP1 PUSH4 0xFFFFFFFF AND JUMP JUMPDEST POP PUSH2 0x1898 JUMP JUMPDEST PUSH2 0xFFFF DUP2 PUSH8 0xFFFFFFFFFFFFFFFF AND GT PUSH2 0x17FD JUMPI PUSH2 0x17D6 PUSH1 0x19 PUSH1 0x5 DUP5 PUSH1 0xFF AND SWAP1 SHL OR DUP5 PUSH2 0x1A55 SWAP1 SWAP2 SWAP1 PUSH4 0xFFFFFFFF AND JUMP JUMPDEST POP PUSH2 0x17F7 DUP2 PUSH8 0xFFFFFFFFFFFFFFFF AND PUSH1 0x2 DUP6 PUSH2 0x1A75 SWAP1 SWAP3 SWAP2 SWAP1 PUSH4 0xFFFFFFFF AND JUMP JUMPDEST POP PUSH2 0x1897 JUMP JUMPDEST PUSH4 0xFFFFFFFF DUP2 PUSH8 0xFFFFFFFFFFFFFFFF AND GT PUSH2 0x1856 JUMPI PUSH2 0x182F PUSH1 0x1A PUSH1 0x5 DUP5 PUSH1 0xFF AND SWAP1 SHL OR DUP5 PUSH2 0x1A55 SWAP1 SWAP2 SWAP1 PUSH4 0xFFFFFFFF AND JUMP JUMPDEST POP PUSH2 0x1850 DUP2 PUSH8 0xFFFFFFFFFFFFFFFF AND PUSH1 0x4 DUP6 PUSH2 0x1A75 SWAP1 SWAP3 SWAP2 SWAP1 PUSH4 0xFFFFFFFF AND JUMP JUMPDEST POP PUSH2 0x1896 JUMP JUMPDEST PUSH2 0x1873 PUSH1 0x1B PUSH1 0x5 DUP5 PUSH1 0xFF AND SWAP1 SHL OR DUP5 PUSH2 0x1A55 SWAP1 SWAP2 SWAP1 PUSH4 0xFFFFFFFF AND JUMP JUMPDEST POP PUSH2 0x1894 DUP2 PUSH8 0xFFFFFFFFFFFFFFFF AND PUSH1 0x8 DUP6 PUSH2 0x1A75 SWAP1 SWAP3 SWAP2 SWAP1 PUSH4 0xFFFFFFFF AND JUMP JUMPDEST POP JUMPDEST JUMPDEST JUMPDEST JUMPDEST POP POP POP JUMP JUMPDEST PUSH2 0x18A6 PUSH2 0x1D60 JUMP JUMPDEST PUSH2 0x18B8 DUP4 DUP5 PUSH1 0x0 ADD MLOAD MLOAD DUP5 DUP6 MLOAD PUSH2 0x1A97 JUMP JUMPDEST SWAP1 POP SWAP3 SWAP2 POP POP JUMP JUMPDEST PUSH1 0x0 ADDRESS DUP5 PUSH1 0x40 MLOAD PUSH1 0x20 ADD PUSH2 0x18D5 SWAP3 SWAP2 SWAP1 PUSH2 0x2922 JUMP JUMPDEST PUSH1 0x40 MLOAD PUSH1 0x20 DUP2 DUP4 SUB SUB DUP2 MSTORE SWAP1 PUSH1 0x40 MSTORE DUP1 MLOAD SWAP1 PUSH1 0x20 ADD KECCAK256 SWAP1 POP DUP5 PUSH1 0x5 PUSH1 0x0 DUP4 DUP2 MSTORE PUSH1 0x20 ADD SWAP1 DUP2 MSTORE PUSH1 0x20 ADD PUSH1 0x0 KECCAK256 PUSH1 0x0 PUSH2 0x100 EXP DUP2 SLOAD DUP2 PUSH20 0xFFFFFFFFFFFFFFFFFFFFFFFFFFFFFFFFFFFFFFFF MUL NOT AND SWAP1 DUP4 PUSH20 0xFFFFFFFFFFFFFFFFFFFFFFFFFFFFFFFFFFFFFFFF AND MUL OR SWAP1 SSTORE POP DUP1 PUSH32 0xB5E6E01E79F91267DC17B4E6314D5D4D03593D2CEEE0FBB452B750BD70EA5AF9 PUSH1 0x40 MLOAD PUSH1 0x40 MLOAD DUP1 SWAP2 SUB SWAP1 LOG2 PUSH1 0x2 PUSH1 0x0 SWAP1 SLOAD SWAP1 PUSH2 0x100 EXP SWAP1 DIV PUSH20 0xFFFFFFFFFFFFFFFFFFFFFFFFFFFFFFFFFFFFFFFF AND PUSH20 0xFFFFFFFFFFFFFFFFFFFFFFFFFFFFFFFFFFFFFFFF AND PUSH4 0x4000AEA0 DUP7 DUP6 DUP6 PUSH1 0x40 MLOAD DUP5 PUSH4 0xFFFFFFFF AND PUSH1 0xE0 SHL DUP2 MSTORE PUSH1 0x4 ADD PUSH2 0x19CB SWAP4 SWAP3 SWAP2 SWAP1 PUSH2 0x294E JUMP JUMPDEST PUSH1 0x20 PUSH1 0x40 MLOAD DUP1 DUP4 SUB DUP2 PUSH1 0x0 DUP8 GAS CALL ISZERO DUP1 ISZERO PUSH2 0x19EA JUMPI RETURNDATASIZE PUSH1 0x0 DUP1 RETURNDATACOPY RETURNDATASIZE PUSH1 0x0 REVERT JUMPDEST POP POP POP POP PUSH1 0x40 MLOAD RETURNDATASIZE PUSH1 0x1F NOT PUSH1 0x1F DUP3 ADD AND DUP3 ADD DUP1 PUSH1 0x40 MSTORE POP DUP2 ADD SWAP1 PUSH2 0x1A0E SWAP2 SWAP1 PUSH2 0x29A1 JUMP JUMPDEST PUSH2 0x1A4D JUMPI PUSH1 0x40 MLOAD PUSH32 0x8C379A000000000000000000000000000000000000000000000000000000000 DUP2 MSTORE PUSH1 0x4 ADD PUSH2 0x1A44 SWAP1 PUSH2 0x2A40 JUMP JUMPDEST PUSH1 0x40 MLOAD DUP1 SWAP2 SUB SWAP1 REVERT JUMPDEST SWAP5 SWAP4 POP POP POP POP JUMP JUMPDEST PUSH2 0x1A5D PUSH2 0x1D60 JUMP JUMPDEST PUSH2 0x1A6D DUP4 DUP5 PUSH1 0x0 ADD MLOAD MLOAD DUP5 PUSH2 0x1B86 JUMP JUMPDEST SWAP1 POP SWAP3 SWAP2 POP POP JUMP JUMPDEST PUSH2 0x1A7D PUSH2 0x1D60 JUMP JUMPDEST PUSH2 0x1A8E DUP5 DUP6 PUSH1 0x0 ADD MLOAD MLOAD DUP6 DUP6 PUSH2 0x1BDC JUMP JUMPDEST SWAP1 POP SWAP4 SWAP3 POP POP POP JUMP JUMPDEST PUSH2 0x1A9F PUSH2 0x1D60 JUMP JUMPDEST DUP3 MLOAD DUP3 GT ISZERO PUSH2 0x1AAD JUMPI PUSH1 0x0 DUP1 REVERT JUMPDEST DUP5 PUSH1 0x20 ADD MLOAD DUP3 DUP6 PUSH2 0x1ABE SWAP2 SWAP1 PUSH2 0x2356 JUMP JUMPDEST GT ISZERO PUSH2 0x1AF3 JUMPI PUSH2 0x1AF2 DUP6 PUSH1 0x2 PUSH2 0x1AE3 DUP9 PUSH1 0x20 ADD MLOAD DUP9 DUP8 PUSH2 0x1ADE SWAP2 SWAP1 PUSH2 0x2356 JUMP JUMPDEST PUSH2 0x1C6A JUMP JUMPDEST PUSH2 0x1AED SWAP2 SWAP1 PUSH2 0x2569 JUMP JUMPDEST PUSH2 0x1C86 JUMP JUMPDEST JUMPDEST PUSH1 0x0 DUP1 DUP7 MLOAD DUP1 MLOAD DUP8 PUSH1 0x20 DUP4 ADD ADD SWAP4 POP DUP1 DUP9 DUP8 ADD GT ISZERO PUSH2 0x1B12 JUMPI DUP8 DUP7 ADD DUP3 MSTORE JUMPDEST PUSH1 0x20 DUP8 ADD SWAP3 POP POP POP JUMPDEST PUSH1 0x20 DUP5 LT PUSH2 0x1B59 JUMPI DUP1 MLOAD DUP3 MSTORE PUSH1 0x20 DUP3 PUSH2 0x1B34 SWAP2 SWAP1 PUSH2 0x2356 JUMP JUMPDEST SWAP2 POP PUSH1 0x20 DUP2 PUSH2 0x1B43 SWAP2 SWAP1 PUSH2 0x2356 JUMP JUMPDEST SWAP1 POP PUSH1 0x20 DUP5 PUSH2 0x1B52 SWAP2 SWAP1 PUSH2 0x2835 JUMP JUMPDEST SWAP4 POP PUSH2 0x1B1B JUMP JUMPDEST PUSH1 0x0 PUSH1 0x1 DUP6 PUSH1 0x20 SUB PUSH2 0x100 EXP SUB SWAP1 POP DUP1 NOT DUP3 MLOAD AND DUP2 DUP5 MLOAD AND DUP2 DUP2 OR DUP6 MSTORE POP POP POP DUP7 SWAP3 POP POP POP SWAP5 SWAP4 POP POP POP POP JUMP JUMPDEST PUSH2 0x1B8E PUSH2 0x1D60 JUMP JUMPDEST DUP4 PUSH1 0x20 ADD MLOAD DUP4 LT PUSH2 0x1BB4 JUMPI PUSH2 0x1BB3 DUP5 PUSH1 0x2 DUP7 PUSH1 0x20 ADD MLOAD PUSH2 0x1BAE SWAP2 SWAP1 PUSH2 0x2569 JUMP JUMPDEST PUSH2 0x1C86 JUMP JUMPDEST JUMPDEST DUP4 MLOAD DUP1 MLOAD PUSH1 0x20 DUP6 DUP4 ADD ADD DUP5 DUP2 MSTORE8 DUP2 DUP7 SUB PUSH2 0x1BCF JUMPI PUSH1 0x1 DUP3 ADD DUP4 MSTORE JUMPDEST POP POP POP DUP4 SWAP1 POP SWAP4 SWAP3 POP POP POP JUMP JUMPDEST PUSH2 0x1BE4 PUSH2 0x1D60 JUMP JUMPDEST DUP5 PUSH1 0x20 ADD MLOAD DUP5 DUP4 PUSH2 0x1BF5 SWAP2 SWAP1 PUSH2 0x2356 JUMP JUMPDEST GT ISZERO PUSH2 0x1C1D JUMPI PUSH2 0x1C1C DUP6 PUSH1 0x2 DUP7 DUP6 PUSH2 0x1C0D SWAP2 SWAP1 PUSH2 0x2356 JUMP JUMPDEST PUSH2 0x1C17 SWAP2 SWAP1 PUSH2 0x2569 JUMP JUMPDEST PUSH2 0x1C86 JUMP JUMPDEST JUMPDEST PUSH1 0x0 PUSH1 0x1 DUP4 PUSH2 0x100 PUSH2 0x1C2F SWAP2 SWAP1 PUSH2 0x2B93 JUMP JUMPDEST PUSH2 0x1C39 SWAP2 SWAP1 PUSH2 0x2835 JUMP JUMPDEST SWAP1 POP DUP6 MLOAD DUP4 DUP7 DUP3 ADD ADD DUP6 DUP4 NOT DUP3 MLOAD AND OR DUP2 MSTORE DUP2 MLOAD DUP6 DUP9 ADD GT ISZERO PUSH2 0x1C5C JUMPI DUP5 DUP8 ADD DUP3 MSTORE JUMPDEST POP POP DUP6 SWAP2 POP POP SWAP5 SWAP4 POP POP POP POP JUMP JUMPDEST PUSH1 0x0 DUP2 DUP4 GT ISZERO PUSH2 0x1C7C JUMPI DUP3 SWAP1 POP PUSH2 0x1C80 JUMP JUMPDEST DUP2 SWAP1 POP JUMPDEST SWAP3 SWAP2 POP POP JUMP JUMPDEST PUSH1 0x0 DUP3 PUSH1 0x0 ADD MLOAD SWAP1 POP PUSH2 0x1C99 DUP4 DUP4 PUSH2 0x16AF JUMP JUMPDEST POP PUSH2 0x1CA4 DUP4 DUP3 PUSH2 0x189E JUMP JUMPDEST POP POP POP POP JUMP JUMPDEST PUSH1 0x40 MLOAD DUP1 PUSH1 0xA0 ADD PUSH1 0x40 MSTORE DUP1 PUSH1 0x0 DUP1 NOT AND DUP2 MSTORE PUSH1 0x20 ADD PUSH1 0x0 PUSH20 0xFFFFFFFFFFFFFFFFFFFFFFFFFFFFFFFFFFFFFFFF AND DUP2 MSTORE PUSH1 0x20 ADD PUSH1 0x0 PUSH28 0xFFFFFFFFFFFFFFFFFFFFFFFFFFFFFFFFFFFFFFFFFFFFFFFFFFFFFFFF NOT AND DUP2 MSTORE PUSH1 0x20 ADD PUSH1 0x0 DUP2 MSTORE PUSH1 0x20 ADD PUSH2 0x1D11 PUSH2 0x1D60 JUMP JUMPDEST DUP2 MSTORE POP SWAP1 JUMP JUMPDEST PUSH1 0x40 MLOAD DUP1 PUSH1 0xA0 ADD PUSH1 0x40 MSTORE DUP1 PUSH1 0x0 PUSH20 0xFFFFFFFFFFFFFFFFFFFFFFFFFFFFFFFFFFFFFFFF AND DUP2 MSTORE PUSH1 0x20 ADD PUSH1 0x0 DUP2 MSTORE PUSH1 0x20 ADD PUSH1 0x0 DUP2 MSTORE PUSH1 0x20 ADD PUSH1 0x0 ISZERO ISZERO DUP2 MSTORE PUSH1 0x20 ADD PUSH1 0x0 ISZERO ISZERO DUP2 MSTORE POP SWAP1 JUMP JUMPDEST PUSH1 0x40 MLOAD DUP1 PUSH1 0x40 ADD PUSH1 0x40 MSTORE DUP1 PUSH1 0x60 DUP2 MSTORE PUSH1 0x20 ADD PUSH1 0x0 DUP2 MSTORE POP SWAP1 JUMP JUMPDEST PUSH1 0x0 DUP1 REVERT JUMPDEST PUSH1 0x0 DUP2 SWAP1 POP SWAP2 SWAP1 POP JUMP JUMPDEST PUSH2 0x1D92 DUP2 PUSH2 0x1D7F JUMP JUMPDEST DUP2 EQ PUSH2 0x1D9D JUMPI PUSH1 0x0 DUP1 REVERT JUMPDEST POP JUMP JUMPDEST PUSH1 0x0 DUP2 CALLDATALOAD SWAP1 POP PUSH2 0x1DAF DUP2 PUSH2 0x1D89 JUMP JUMPDEST SWAP3 SWAP2 POP POP JUMP JUMPDEST PUSH1 0x0 DUP1 PUSH1 0x40 DUP4 DUP6 SUB SLT ISZERO PUSH2 0x1DCC JUMPI PUSH2 0x1DCB PUSH2 0x1D7A JUMP JUMPDEST JUMPDEST PUSH1 0x0 PUSH2 0x1DDA DUP6 DUP3 DUP7 ADD PUSH2 0x1DA0 JUMP JUMPDEST SWAP3 POP POP PUSH1 0x20 PUSH2 0x1DEB DUP6 DUP3 DUP7 ADD PUSH2 0x1DA0 JUMP JUMPDEST SWAP2 POP POP SWAP3 POP SWAP3 SWAP1 POP JUMP JUMPDEST PUSH1 0x0 PUSH20 0xFFFFFFFFFFFFFFFFFFFFFFFFFFFFFFFFFFFFFFFF DUP3 AND SWAP1 POP SWAP2 SWAP1 POP JUMP JUMPDEST PUSH1 0x0 PUSH2 0x1E20 DUP3 PUSH2 0x1DF5 JUMP JUMPDEST SWAP1 POP SWAP2 SWAP1 POP JUMP JUMPDEST PUSH2 0x1E30 DUP2 PUSH2 0x1E15 JUMP JUMPDEST DUP3 MSTORE POP POP JUMP JUMPDEST PUSH1 0x0 PUSH1 0x20 DUP3 ADD SWAP1 POP PUSH2 0x1E4B PUSH1 0x0 DUP4 ADD DUP5 PUSH2 0x1E27 JUMP JUMPDEST SWAP3 SWAP2 POP POP JUMP JUMPDEST PUSH1 0x0 PUSH1 0x20 DUP3 DUP5 SUB SLT ISZERO PUSH2 0x1E67 JUMPI PUSH2 0x1E66 PUSH2 0x1D7A JUMP JUMPDEST JUMPDEST PUSH1 0x0 PUSH2 0x1E75 DUP5 DUP3 DUP6 ADD PUSH2 0x1DA0 JUMP JUMPDEST SWAP2 POP POP SWAP3 SWAP2 POP POP JUMP JUMPDEST PUSH2 0x1E87 DUP2 PUSH2 0x1D7F JUMP JUMPDEST DUP3 MSTORE POP POP JUMP JUMPDEST PUSH1 0x0 PUSH1 0x40 DUP3 ADD SWAP1 POP PUSH2 0x1EA2 PUSH1 0x0 DUP4 ADD DUP6 PUSH2 0x1E7E JUMP JUMPDEST PUSH2 0x1EAF PUSH1 0x20 DUP4 ADD DUP5 PUSH2 0x1E7E JUMP JUMPDEST SWAP4 SWAP3 POP POP POP JUMP JUMPDEST PUSH2 0x1EBF DUP2 PUSH2 0x1E15 JUMP JUMPDEST DUP2 EQ PUSH2 0x1ECA JUMPI PUSH1 0x0 DUP1 REVERT JUMPDEST POP JUMP JUMPDEST PUSH1 0x0 DUP2 CALLDATALOAD SWAP1 POP PUSH2 0x1EDC DUP2 PUSH2 0x1EB6 JUMP JUMPDEST SWAP3 SWAP2 POP POP JUMP JUMPDEST PUSH1 0x0 DUP1 PUSH1 0x40 DUP4 DUP6 SUB SLT ISZERO PUSH2 0x1EF9 JUMPI PUSH2 0x1EF8 PUSH2 0x1D7A JUMP JUMPDEST JUMPDEST PUSH1 0x0 PUSH2 0x1F07 DUP6 DUP3 DUP7 ADD PUSH2 0x1ECD JUMP JUMPDEST SWAP3 POP POP PUSH1 0x20 PUSH2 0x1F18 DUP6 DUP3 DUP7 ADD PUSH2 0x1DA0 JUMP JUMPDEST SWAP2 POP POP SWAP3 POP SWAP3 SWAP1 POP JUMP JUMPDEST PUSH1 0x0 DUP2 ISZERO ISZERO SWAP1 POP SWAP2 SWAP1 POP JUMP JUMPDEST PUSH2 0x1F37 DUP2 PUSH2 0x1F22 JUMP JUMPDEST DUP3 MSTORE POP POP JUMP JUMPDEST PUSH1 0x0 PUSH1 0xA0 DUP3 ADD SWAP1 POP PUSH2 0x1F52 PUSH1 0x0 DUP4 ADD DUP9 PUSH2 0x1E27 JUMP JUMPDEST PUSH2 0x1F5F PUSH1 0x20 DUP4 ADD DUP8 PUSH2 0x1E7E JUMP JUMPDEST PUSH2 0x1F6C PUSH1 0x40 DUP4 ADD DUP7 PUSH2 0x1E7E JUMP JUMPDEST PUSH2 0x1F79 PUSH1 0x60 DUP4 ADD DUP6 PUSH2 0x1F2E JUMP JUMPDEST PUSH2 0x1F86 PUSH1 0x80 DUP4 ADD DUP5 PUSH2 0x1F2E JUMP JUMPDEST SWAP7 SWAP6 POP POP POP POP POP POP JUMP JUMPDEST PUSH1 0x0 DUP2 SWAP1 POP SWAP2 SWAP1 POP JUMP JUMPDEST PUSH2 0x1FA3 DUP2 PUSH2 0x1F90 JUMP JUMPDEST DUP3 MSTORE POP POP JUMP JUMPDEST PUSH1 0x0 PUSH1 0x20 DUP3 ADD SWAP1 POP PUSH2 0x1FBE PUSH1 0x0 DUP4 ADD DUP5 PUSH2 0x1F9A JUMP JUMPDEST SWAP3 SWAP2 POP POP JUMP JUMPDEST PUSH2 0x1FCD DUP2 PUSH2 0x1F22 JUMP JUMPDEST DUP2 EQ PUSH2 0x1FD8 JUMPI PUSH1 0x0 DUP1 REVERT JUMPDEST POP JUMP JUMPDEST PUSH1 0x0 DUP2 CALLDATALOAD SWAP1 POP PUSH2 0x1FEA DUP2 PUSH2 0x1FC4 JUMP JUMPDEST SWAP3 SWAP2 POP POP JUMP JUMPDEST PUSH1 0x0 DUP1 PUSH1 0x40 DUP4 DUP6 SUB SLT ISZERO PUSH2 0x2007 JUMPI PUSH2 0x2006 PUSH2 0x1D7A JUMP JUMPDEST JUMPDEST PUSH1 0x0 PUSH2 0x2015 DUP6 DUP3 DUP7 ADD PUSH2 0x1DA0 JUMP JUMPDEST SWAP3 POP POP PUSH1 0x20 PUSH2 0x2026 DUP6 DUP3 DUP7 ADD PUSH2 0x1FDB JUMP JUMPDEST SWAP2 POP POP SWAP3 POP SWAP3 SWAP1 POP JUMP JUMPDEST PUSH2 0x2039 DUP2 PUSH2 0x1F90 JUMP JUMPDEST DUP2 EQ PUSH2 0x2044 JUMPI PUSH1 0x0 DUP1 REVERT JUMPDEST POP JUMP JUMPDEST PUSH1 0x0 DUP2 CALLDATALOAD SWAP1 POP PUSH2 0x2056 DUP2 PUSH2 0x2030 JUMP JUMPDEST SWAP3 SWAP2 POP POP JUMP JUMPDEST PUSH1 0x0 DUP2 SWAP1 POP SWAP2 SWAP1 POP JUMP JUMPDEST PUSH2 0x206F DUP2 PUSH2 0x205C JUMP JUMPDEST DUP2 EQ PUSH2 0x207A JUMPI PUSH1 0x0 DUP1 REVERT JUMPDEST POP JUMP JUMPDEST PUSH1 0x0 DUP2 CALLDATALOAD SWAP1 POP PUSH2 0x208C DUP2 PUSH2 0x2066 JUMP JUMPDEST SWAP3 SWAP2 POP POP JUMP JUMPDEST PUSH1 0x0 DUP1 PUSH1 0x40 DUP4 DUP6 SUB SLT ISZERO PUSH2 0x20A9 JUMPI PUSH2 0x20A8 PUSH2 0x1D7A JUMP JUMPDEST JUMPDEST PUSH1 0x0 PUSH2 0x20B7 DUP6 DUP3 DUP7 ADD PUSH2 0x2047 JUMP JUMPDEST SWAP3 POP POP PUSH1 0x20 PUSH2 0x20C8 DUP6 DUP3 DUP7 ADD PUSH2 0x207D JUMP JUMPDEST SWAP2 POP POP SWAP3 POP SWAP3 SWAP1 POP JUMP JUMPDEST PUSH1 0x0 PUSH1 0x20 DUP3 ADD SWAP1 POP PUSH2 0x20E7 PUSH1 0x0 DUP4 ADD DUP5 PUSH2 0x1E7E JUMP JUMPDEST SWAP3 SWAP2 POP POP JUMP JUMPDEST PUSH1 0x0 PUSH1 0x20 DUP3 DUP5 SUB SLT ISZERO PUSH2 0x2103 JUMPI PUSH2 0x2102 PUSH2 0x1D7A JUMP JUMPDEST JUMPDEST PUSH1 0x0 PUSH2 0x2111 DUP5 DUP3 DUP6 ADD PUSH2 0x1ECD JUMP JUMPDEST SWAP2 POP POP SWAP3 SWAP2 POP POP JUMP JUMPDEST PUSH1 0x0 DUP3 DUP3 MSTORE PUSH1 0x20 DUP3 ADD SWAP1 POP SWAP3 SWAP2 POP POP JUMP JUMPDEST PUSH32 0x5468652067616D65206973206F766572206F7220646F65736E27742065786973 PUSH1 0x0 DUP3 ADD MSTORE PUSH32 0x7400000000000000000000000000000000000000000000000000000000000000 PUSH1 0x20 DUP3 ADD MSTORE POP JUMP JUMPDEST PUSH1 0x0 PUSH2 0x2187 PUSH1 0x21 DUP4 PUSH2 0x211A JUMP JUMPDEST SWAP2 POP PUSH2 0x2192 DUP3 PUSH2 0x212B JUMP JUMPDEST PUSH1 0x40 DUP3 ADD SWAP1 POP SWAP2 SWAP1 POP JUMP JUMPDEST PUSH1 0x0 PUSH1 0x20 DUP3 ADD SWAP1 POP DUP2 DUP2 SUB PUSH1 0x0 DUP4 ADD MSTORE PUSH2 0x21B6 DUP2 PUSH2 0x217A JUMP JUMPDEST SWAP1 POP SWAP2 SWAP1 POP JUMP JUMPDEST PUSH32 0x4D7573742062652070726F706F736564206F776E657200000000000000000000 PUSH1 0x0 DUP3 ADD MSTORE POP JUMP JUMPDEST PUSH1 0x0 PUSH2 0x21F3 PUSH1 0x16 DUP4 PUSH2 0x211A JUMP JUMPDEST SWAP2 POP PUSH2 0x21FE DUP3 PUSH2 0x21BD JUMP JUMPDEST PUSH1 0x20 DUP3 ADD SWAP1 POP SWAP2 SWAP1 POP JUMP JUMPDEST PUSH1 0x0 PUSH1 0x20 DUP3 ADD SWAP1 POP DUP2 DUP2 SUB PUSH1 0x0 DUP4 ADD MSTORE PUSH2 0x2222 DUP2 PUSH2 0x21E6 JUMP JUMPDEST SWAP1 POP SWAP2 SWAP1 POP JUMP JUMPDEST PUSH32 0x4F6E6C7920746865204F7261636C652063616E2063616C6C2074686973206675 PUSH1 0x0 DUP3 ADD MSTORE PUSH32 0x6E6374696F6E0000000000000000000000000000000000000000000000000000 PUSH1 0x20 DUP3 ADD MSTORE POP JUMP JUMPDEST PUSH1 0x0 PUSH2 0x2285 PUSH1 0x26 DUP4 PUSH2 0x211A JUMP JUMPDEST SWAP2 POP PUSH2 0x2290 DUP3 PUSH2 0x2229 JUMP JUMPDEST PUSH1 0x40 DUP3 ADD SWAP1 POP SWAP2 SWAP1 POP JUMP JUMPDEST PUSH1 0x0 PUSH1 0x20 DUP3 ADD SWAP1 POP DUP2 DUP2 SUB PUSH1 0x0 DUP4 ADD MSTORE PUSH2 0x22B4 DUP2 PUSH2 0x2278 JUMP JUMPDEST SWAP1 POP SWAP2 SWAP1 POP JUMP JUMPDEST PUSH32 0x5468652067616D65206973206F76657200000000000000000000000000000000 PUSH1 0x0 DUP3 ADD MSTORE POP JUMP JUMPDEST PUSH1 0x0 PUSH2 0x22F1 PUSH1 0x10 DUP4 PUSH2 0x211A JUMP JUMPDEST SWAP2 POP PUSH2 0x22FC DUP3 PUSH2 0x22BB JUMP JUMPDEST PUSH1 0x20 DUP3 ADD SWAP1 POP SWAP2 SWAP1 POP JUMP JUMPDEST PUSH1 0x0 PUSH1 0x20 DUP3 ADD SWAP1 POP DUP2 DUP2 SUB PUSH1 0x0 DUP4 ADD MSTORE PUSH2 0x2320 DUP2 PUSH2 0x22E4 JUMP JUMPDEST SWAP1 POP SWAP2 SWAP1 POP JUMP JUMPDEST PUSH32 0x4E487B7100000000000000000000000000000000000000000000000000000000 PUSH1 0x0 MSTORE PUSH1 0x11 PUSH1 0x4 MSTORE PUSH1 0x24 PUSH1 0x0 REVERT JUMPDEST PUSH1 0x0 PUSH2 0x2361 DUP3 PUSH2 0x1D7F JUMP JUMPDEST SWAP2 POP PUSH2 0x236C DUP4 PUSH2 0x1D7F JUMP JUMPDEST SWAP3 POP DUP3 DUP3 ADD SWAP1 POP DUP1 DUP3 GT ISZERO PUSH2 0x2384 JUMPI PUSH2 0x2383 PUSH2 0x2327 JUMP JUMPDEST JUMPDEST SWAP3 SWAP2 POP POP JUMP JUMPDEST PUSH32 0x536F75726365206D75737420626520746865206F7261636C65206F6620746865 PUSH1 0x0 DUP3 ADD MSTORE PUSH32 0x2072657175657374000000000000000000000000000000000000000000000000 PUSH1 0x20 DUP3 ADD MSTORE POP JUMP JUMPDEST PUSH1 0x0 PUSH2 0x23E6 PUSH1 0x28 DUP4 PUSH2 0x211A JUMP JUMPDEST SWAP2 POP PUSH2 0x23F1 DUP3 PUSH2 0x238A JUMP JUMPDEST PUSH1 0x40 DUP3 ADD SWAP1 POP SWAP2 SWAP1 POP JUMP JUMPDEST PUSH1 0x0 PUSH1 0x20 DUP3 ADD SWAP1 POP DUP2 DUP2 SUB PUSH1 0x0 DUP4 ADD MSTORE PUSH2 0x2415 DUP2 PUSH2 0x23D9 JUMP JUMPDEST SWAP1 POP SWAP2 SWAP1 POP JUMP JUMPDEST PUSH1 0x0 PUSH2 0x2427 DUP3 PUSH2 0x205C JUMP JUMPDEST SWAP2 POP PUSH2 0x2432 DUP4 PUSH2 0x205C JUMP JUMPDEST SWAP3 POP DUP3 DUP3 MUL PUSH2 0x2440 DUP2 PUSH2 0x205C JUMP JUMPDEST SWAP2 POP PUSH32 0x8000000000000000000000000000000000000000000000000000000000000000 DUP5 EQ PUSH1 0x0 DUP5 SLT AND ISZERO PUSH2 0x2478 JUMPI PUSH2 0x2477 PUSH2 0x2327 JUMP JUMPDEST JUMPDEST DUP3 DUP3 SDIV DUP5 EQ DUP4 ISZERO OR PUSH2 0x248D JUMPI PUSH2 0x248C PUSH2 0x2327 JUMP JUMPDEST JUMPDEST POP SWAP3 SWAP2 POP POP JUMP JUMPDEST PUSH32 0x4E487B7100000000000000000000000000000000000000000000000000000000 PUSH1 0x0 MSTORE PUSH1 0x41 PUSH1 0x4 MSTORE PUSH1 0x24 PUSH1 0x0 REVERT JUMPDEST PUSH32 0x4E487B7100000000000000000000000000000000000000000000000000000000 PUSH1 0x0 MSTORE PUSH1 0x12 PUSH1 0x4 MSTORE PUSH1 0x24 PUSH1 0x0 REVERT JUMPDEST PUSH32 0x4E487B7100000000000000000000000000000000000000000000000000000000 PUSH1 0x0 MSTORE PUSH1 0x32 PUSH1 0x4 MSTORE PUSH1 0x24 PUSH1 0x0 REVERT JUMPDEST PUSH1 0x0 PUSH2 0x252C DUP3 PUSH2 0x1D7F JUMP JUMPDEST SWAP2 POP PUSH32 0xFFFFFFFFFFFFFFFFFFFFFFFFFFFFFFFFFFFFFFFFFFFFFFFFFFFFFFFFFFFFFFFF DUP3 SUB PUSH2 0x255E JUMPI PUSH2 0x255D PUSH2 0x2327 JUMP JUMPDEST JUMPDEST PUSH1 0x1 DUP3 ADD SWAP1 POP SWAP2 SWAP1 POP JUMP JUMPDEST PUSH1 0x0 PUSH2 0x2574 DUP3 PUSH2 0x1D7F JUMP JUMPDEST SWAP2 POP PUSH2 0x257F DUP4 PUSH2 0x1D7F JUMP JUMPDEST SWAP3 POP DUP3 DUP3 MUL PUSH2 0x258D DUP2 PUSH2 0x1D7F JUMP JUMPDEST SWAP2 POP DUP3 DUP3 DIV DUP5 EQ DUP4 ISZERO OR PUSH2 0x25A4 JUMPI PUSH2 0x25A3 PUSH2 0x2327 JUMP JUMPDEST JUMPDEST POP SWAP3 SWAP2 POP POP JUMP JUMPDEST PUSH1 0x0 PUSH2 0x25B6 DUP3 PUSH2 0x1D7F JUMP JUMPDEST SWAP2 POP PUSH2 0x25C1 DUP4 PUSH2 0x1D7F JUMP JUMPDEST SWAP3 POP DUP3 PUSH2 0x25D1 JUMPI PUSH2 0x25D0 PUSH2 0x24C3 JUMP JUMPDEST JUMPDEST DUP3 DUP3 DIV SWAP1 POP SWAP3 SWAP2 POP POP JUMP JUMPDEST PUSH32 0x4F6E6C792063616C6C61626C65206279206F776E657200000000000000000000 PUSH1 0x0 DUP3 ADD MSTORE POP JUMP JUMPDEST PUSH1 0x0 PUSH2 0x2612 PUSH1 0x16 DUP4 PUSH2 0x211A JUMP JUMPDEST SWAP2 POP PUSH2 0x261D DUP3 PUSH2 0x25DC JUMP JUMPDEST PUSH1 0x20 DUP3 ADD SWAP1 POP SWAP2 SWAP1 POP JUMP JUMPDEST PUSH1 0x0 PUSH1 0x20 DUP3 ADD SWAP1 POP DUP2 DUP2 SUB PUSH1 0x0 DUP4 ADD MSTORE PUSH2 0x2641 DUP2 PUSH2 0x2605 JUMP JUMPDEST SWAP1 POP SWAP2 SWAP1 POP JUMP JUMPDEST PUSH32 0x43616E6E6F74207472616E7366657220746F2073656C66000000000000000000 PUSH1 0x0 DUP3 ADD MSTORE POP JUMP JUMPDEST PUSH1 0x0 PUSH2 0x267E PUSH1 0x17 DUP4 PUSH2 0x211A JUMP JUMPDEST SWAP2 POP PUSH2 0x2689 DUP3 PUSH2 0x2648 JUMP JUMPDEST PUSH1 0x20 DUP3 ADD SWAP1 POP SWAP2 SWAP1 POP JUMP JUMPDEST PUSH1 0x0 PUSH1 0x20 DUP3 ADD SWAP1 POP DUP2 DUP2 SUB PUSH1 0x0 DUP4 ADD MSTORE PUSH2 0x26AD DUP2 PUSH2 0x2671 JUMP JUMPDEST SWAP1 POP SWAP2 SWAP1 POP JUMP JUMPDEST PUSH1 0x0 PUSH32 0xFFFFFFFF00000000000000000000000000000000000000000000000000000000 DUP3 AND SWAP1 POP SWAP2 SWAP1 POP JUMP JUMPDEST PUSH2 0x26E9 DUP2 PUSH2 0x26B4 JUMP JUMPDEST DUP3 MSTORE POP POP JUMP JUMPDEST PUSH1 0x0 DUP2 MLOAD SWAP1 POP SWAP2 SWAP1 POP JUMP JUMPDEST PUSH1 0x0 DUP3 DUP3 MSTORE PUSH1 0x20 DUP3 ADD SWAP1 POP SWAP3 SWAP2 POP POP JUMP JUMPDEST PUSH1 0x0 JUMPDEST DUP4 DUP2 LT ISZERO PUSH2 0x2729 JUMPI DUP1 DUP3 ADD MLOAD DUP2 DUP5 ADD MSTORE PUSH1 0x20 DUP2 ADD SWAP1 POP PUSH2 0x270E JUMP JUMPDEST PUSH1 0x0 DUP5 DUP5 ADD MSTORE POP POP POP POP JUMP JUMPDEST PUSH1 0x0 PUSH1 0x1F NOT PUSH1 0x1F DUP4 ADD AND SWAP1 POP SWAP2 SWAP1 POP JUMP JUMPDEST PUSH1 0x0 PUSH2 0x2751 DUP3 PUSH2 0x26EF JUMP JUMPDEST PUSH2 0x275B DUP2 DUP6 PUSH2 0x26FA JUMP JUMPDEST SWAP4 POP PUSH2 0x276B DUP2 DUP6 PUSH1 0x20 DUP7 ADD PUSH2 0x270B JUMP JUMPDEST PUSH2 0x2774 DUP2 PUSH2 0x2735 JUMP JUMPDEST DUP5 ADD SWAP2 POP POP SWAP3 SWAP2 POP POP JUMP JUMPDEST PUSH1 0x0 PUSH2 0x100 DUP3 ADD SWAP1 POP PUSH2 0x2795 PUSH1 0x0 DUP4 ADD DUP12 PUSH2 0x1E27 JUMP JUMPDEST PUSH2 0x27A2 PUSH1 0x20 DUP4 ADD DUP11 PUSH2 0x1E7E JUMP JUMPDEST PUSH2 0x27AF PUSH1 0x40 DUP4 ADD DUP10 PUSH2 0x1F9A JUMP JUMPDEST PUSH2 0x27BC PUSH1 0x60 DUP4 ADD DUP9 PUSH2 0x1E27 JUMP JUMPDEST PUSH2 0x27C9 PUSH1 0x80 DUP4 ADD DUP8 PUSH2 0x26E0 JUMP JUMPDEST PUSH2 0x27D6 PUSH1 0xA0 DUP4 ADD DUP7 PUSH2 0x1E7E JUMP JUMPDEST PUSH2 0x27E3 PUSH1 0xC0 DUP4 ADD DUP6 PUSH2 0x1E7E JUMP JUMPDEST DUP2 DUP2 SUB PUSH1 0xE0 DUP4 ADD MSTORE PUSH2 0x27F5 DUP2 DUP5 PUSH2 0x2746 JUMP JUMPDEST SWAP1 POP SWAP10 SWAP9 POP POP POP POP POP POP POP POP POP JUMP JUMPDEST PUSH1 0x0 PUSH2 0x280F DUP3 PUSH2 0x1D7F JUMP JUMPDEST SWAP2 POP PUSH2 0x281A DUP4 PUSH2 0x1D7F JUMP JUMPDEST SWAP3 POP DUP3 PUSH2 0x282A JUMPI PUSH2 0x2829 PUSH2 0x24C3 JUMP JUMPDEST JUMPDEST DUP3 DUP3 MOD SWAP1 POP SWAP3 SWAP2 POP POP JUMP JUMPDEST PUSH1 0x0 PUSH2 0x2840 DUP3 PUSH2 0x1D7F JUMP JUMPDEST SWAP2 POP PUSH2 0x284B DUP4 PUSH2 0x1D7F JUMP JUMPDEST SWAP3 POP DUP3 DUP3 SUB SWAP1 POP DUP2 DUP2 GT ISZERO PUSH2 0x2863 JUMPI PUSH2 0x2862 PUSH2 0x2327 JUMP JUMPDEST JUMPDEST SWAP3 SWAP2 POP POP JUMP JUMPDEST PUSH1 0x0 DUP2 SWAP1 POP SWAP2 SWAP1 POP JUMP JUMPDEST PUSH1 0x0 PUSH2 0x288E PUSH2 0x2889 PUSH2 0x2884 DUP5 PUSH2 0x1DF5 JUMP JUMPDEST PUSH2 0x2869 JUMP JUMPDEST PUSH2 0x1DF5 JUMP JUMPDEST SWAP1 POP SWAP2 SWAP1 POP JUMP JUMPDEST PUSH1 0x0 PUSH2 0x28A0 DUP3 PUSH2 0x2873 JUMP JUMPDEST SWAP1 POP SWAP2 SWAP1 POP JUMP JUMPDEST PUSH1 0x0 PUSH2 0x28B2 DUP3 PUSH2 0x2895 JUMP JUMPDEST SWAP1 POP SWAP2 SWAP1 POP JUMP JUMPDEST PUSH1 0x0 DUP2 PUSH1 0x60 SHL SWAP1 POP SWAP2 SWAP1 POP JUMP JUMPDEST PUSH1 0x0 PUSH2 0x28D1 DUP3 PUSH2 0x28B9 JUMP JUMPDEST SWAP1 POP SWAP2 SWAP1 POP JUMP JUMPDEST PUSH1 0x0 PUSH2 0x28E3 DUP3 PUSH2 0x28C6 JUMP JUMPDEST SWAP1 POP SWAP2 SWAP1 POP JUMP JUMPDEST PUSH2 0x28FB PUSH2 0x28F6 DUP3 PUSH2 0x28A7 JUMP JUMPDEST PUSH2 0x28D8 JUMP JUMPDEST DUP3 MSTORE POP POP JUMP JUMPDEST PUSH1 0x0 DUP2 SWAP1 POP SWAP2 SWAP1 POP JUMP JUMPDEST PUSH2 0x291C PUSH2 0x2917 DUP3 PUSH2 0x1D7F JUMP JUMPDEST PUSH2 0x2901 JUMP JUMPDEST DUP3 MSTORE POP POP JUMP JUMPDEST PUSH1 0x0 PUSH2 0x292E DUP3 DUP6 PUSH2 0x28EA JUMP JUMPDEST PUSH1 0x14 DUP3 ADD SWAP2 POP PUSH2 0x293E DUP3 DUP5 PUSH2 0x290B JUMP JUMPDEST PUSH1 0x20 DUP3 ADD SWAP2 POP DUP2 SWAP1 POP SWAP4 SWAP3 POP POP POP JUMP JUMPDEST PUSH1 0x0 PUSH1 0x60 DUP3 ADD SWAP1 POP PUSH2 0x2963 PUSH1 0x0 DUP4 ADD DUP7 PUSH2 0x1E27 JUMP JUMPDEST PUSH2 0x2970 PUSH1 0x20 DUP4 ADD DUP6 PUSH2 0x1E7E JUMP JUMPDEST DUP2 DUP2 SUB PUSH1 0x40 DUP4 ADD MSTORE PUSH2 0x2982 DUP2 DUP5 PUSH2 0x2746 JUMP JUMPDEST SWAP1 POP SWAP5 SWAP4 POP POP POP POP JUMP JUMPDEST PUSH1 0x0 DUP2 MLOAD SWAP1 POP PUSH2 0x299B DUP2 PUSH2 0x1FC4 JUMP JUMPDEST SWAP3 SWAP2 POP POP JUMP JUMPDEST PUSH1 0x0 PUSH1 0x20 DUP3 DUP5 SUB SLT ISZERO PUSH2 0x29B7 JUMPI PUSH2 0x29B6 PUSH2 0x1D7A JUMP JUMPDEST JUMPDEST PUSH1 0x0 PUSH2 0x29C5 DUP5 DUP3 DUP6 ADD PUSH2 0x298C JUMP JUMPDEST SWAP2 POP POP SWAP3 SWAP2 POP POP JUMP JUMPDEST PUSH32 0x756E61626C6520746F207472616E73666572416E6443616C6C20746F206F7261 PUSH1 0x0 DUP3 ADD MSTORE PUSH32 0x636C650000000000000000000000000000000000000000000000000000000000 PUSH1 0x20 DUP3 ADD MSTORE POP JUMP JUMPDEST PUSH1 0x0 PUSH2 0x2A2A PUSH1 0x23 DUP4 PUSH2 0x211A JUMP JUMPDEST SWAP2 POP PUSH2 0x2A35 DUP3 PUSH2 0x29CE JUMP JUMPDEST PUSH1 0x40 DUP3 ADD SWAP1 POP SWAP2 SWAP1 POP JUMP JUMPDEST PUSH1 0x0 PUSH1 0x20 DUP3 ADD SWAP1 POP DUP2 DUP2 SUB PUSH1 0x0 DUP4 ADD MSTORE PUSH2 0x2A59 DUP2 PUSH2 0x2A1D JUMP JUMPDEST SWAP1 POP SWAP2 SWAP1 POP JUMP JUMPDEST PUSH1 0x0 DUP2 PUSH1 0x1 SHR SWAP1 POP SWAP2 SWAP1 POP JUMP JUMPDEST PUSH1 0x0 DUP1 DUP3 SWAP2 POP DUP4 SWAP1 POP JUMPDEST PUSH1 0x1 DUP6 GT ISZERO PUSH2 0x2AB7 JUMPI DUP1 DUP7 DIV DUP2 GT ISZERO PUSH2 0x2A93 JUMPI PUSH2 0x2A92 PUSH2 0x2327 JUMP JUMPDEST JUMPDEST PUSH1 0x1 DUP6 AND ISZERO PUSH2 0x2AA2 JUMPI DUP1 DUP3 MUL SWAP2 POP JUMPDEST DUP1 DUP2 MUL SWAP1 POP PUSH2 0x2AB0 DUP6 PUSH2 0x2A60 JUMP JUMPDEST SWAP5 POP PUSH2 0x2A77 JUMP JUMPDEST SWAP5 POP SWAP5 SWAP3 POP POP POP JUMP JUMPDEST PUSH1 0x0 DUP3 PUSH2 0x2AD0 JUMPI PUSH1 0x1 SWAP1 POP PUSH2 0x2B8C JUMP JUMPDEST DUP2 PUSH2 0x2ADE JUMPI PUSH1 0x0 SWAP1 POP PUSH2 0x2B8C JUMP JUMPDEST DUP2 PUSH1 0x1 DUP2 EQ PUSH2 0x2AF4 JUMPI PUSH1 0x2 DUP2 EQ PUSH2 0x2AFE JUMPI PUSH2 0x2B2D JUMP JUMPDEST PUSH1 0x1 SWAP2 POP POP PUSH2 0x2B8C JUMP JUMPDEST PUSH1 0xFF DUP5 GT ISZERO PUSH2 0x2B10 JUMPI PUSH2 0x2B0F PUSH2 0x2327 JUMP JUMPDEST JUMPDEST DUP4 PUSH1 0x2 EXP SWAP2 POP DUP5 DUP3 GT ISZERO PUSH2 0x2B27 JUMPI PUSH2 0x2B26 PUSH2 0x2327 JUMP JUMPDEST JUMPDEST POP PUSH2 0x2B8C JUMP JUMPDEST POP PUSH1 0x20 DUP4 LT PUSH2 0x133 DUP4 LT AND PUSH1 0x4E DUP5 LT PUSH1 0xB DUP5 LT AND OR ISZERO PUSH2 0x2B62 JUMPI DUP3 DUP3 EXP SWAP1 POP DUP4 DUP2 GT ISZERO PUSH2 0x2B5D JUMPI PUSH2 0x2B5C PUSH2 0x2327 JUMP JUMPDEST JUMPDEST PUSH2 0x2B8C JUMP JUMPDEST PUSH2 0x2B6F DUP5 DUP5 DUP5 PUSH1 0x1 PUSH2 0x2A6D JUMP JUMPDEST SWAP3 POP SWAP1 POP DUP2 DUP5 DIV DUP2 GT ISZERO PUSH2 0x2B86 JUMPI PUSH2 0x2B85 PUSH2 0x2327 JUMP JUMPDEST JUMPDEST DUP2 DUP2 MUL SWAP1 POP JUMPDEST SWAP4 SWAP3 POP POP POP JUMP JUMPDEST PUSH1 0x0 PUSH2 0x2B9E DUP3 PUSH2 0x1D7F JUMP JUMPDEST SWAP2 POP PUSH2 0x2BA9 DUP4 PUSH2 0x1D7F JUMP JUMPDEST SWAP3 POP PUSH2 0x2BD6 PUSH32 0xFFFFFFFFFFFFFFFFFFFFFFFFFFFFFFFFFFFFFFFFFFFFFFFFFFFFFFFFFFFFFFFF DUP5 DUP5 PUSH2 0x2AC0 JUMP JUMPDEST SWAP1 POP SWAP3 SWAP2 POP POP JUMP INVALID PUSH9 0x747470733A2F2F6465 PUSH20 0x706F7274732D65787465726E616C2D6164617074 PUSH6 0x722E6F6E7265 PUSH15 0x6465722E636F6DA264697066735822 SLT KECCAK256 0xCB SWAP7 0x1F SSTORE PUSH25 0x3A6876B3A3720D19D7EA976B1739A247AEE24A0FC744E4BA56 0x2D DIV PUSH5 0x736F6C6343 STOP ADDMOD SLT STOP CALLER "
		},
		"gasEstimates": {
			"creation": {
				"codeDepositCost": "2266000",
				"executionCost": "infinite",
				"totalCost": "infinite"
			},
			"external": {
				"acceptOwnership()": "54607",
				"bet_totals(uint256,bool)": "infinite",
				"bets_by_bettor(address,uint256)": "infinite",
				"bettors_by_game(uint256,uint256)": "infinite",
				"checkGameStatus(uint256)": "infinite",
				"fulfill(bytes32,int256)": "infinite",
				"getBets(uint256)": "infinite",
				"oracle()": "2603",
				"owner()": "2545",
				"placeBet(uint256,bool)": "infinite",
				"reportResult(uint256,bool)": "51490",
				"transferOwnership(address)": "30748",
				"volume()": "2473"
			},
			"internal": {
				"withdrawGain(uint256,bool)": "infinite"
			}
		},
		"methodIdentifiers": {
			"acceptOwnership()": "79ba5097",
			"bet_totals(uint256,bool)": "c8d34c78",
			"bets_by_bettor(address,uint256)": "643e8f07",
			"bettors_by_game(uint256,uint256)": "0205becd",
			"checkGameStatus(uint256)": "811862b7",
			"fulfill(bytes32,int256)": "bda71d04",
			"getBets(uint256)": "1ccf6955",
			"oracle()": "7dc0d1d0",
			"owner()": "8da5cb5b",
			"placeBet(uint256,bool)": "9ed9c74d",
			"reportResult(uint256,bool)": "8dfcb01d",
			"transferOwnership(address)": "f2fde38b",
			"volume()": "c618a1e4"
		}
	},
	"abi": [
		{
			"inputs": [
				{
					"internalType": "address",
					"name": "_oracle",
					"type": "address"
				}
			],
			"stateMutability": "nonpayable",
			"type": "constructor"
		},
		{
			"anonymous": false,
			"inputs": [
				{
					"indexed": true,
					"internalType": "bytes32",
					"name": "id",
					"type": "bytes32"
				}
			],
			"name": "ChainlinkCancelled",
			"type": "event"
		},
		{
			"anonymous": false,
			"inputs": [
				{
					"indexed": true,
					"internalType": "bytes32",
					"name": "id",
					"type": "bytes32"
				}
			],
			"name": "ChainlinkFulfilled",
			"type": "event"
		},
		{
			"anonymous": false,
			"inputs": [
				{
					"indexed": true,
					"internalType": "bytes32",
					"name": "id",
					"type": "bytes32"
				}
			],
			"name": "ChainlinkRequested",
			"type": "event"
		},
		{
			"anonymous": false,
			"inputs": [
				{
					"indexed": true,
					"internalType": "address",
					"name": "from",
					"type": "address"
				},
				{
					"indexed": true,
					"internalType": "address",
					"name": "to",
					"type": "address"
				}
			],
			"name": "OwnershipTransferRequested",
			"type": "event"
		},
		{
			"anonymous": false,
			"inputs": [
				{
					"indexed": true,
					"internalType": "address",
					"name": "from",
					"type": "address"
				},
				{
					"indexed": true,
					"internalType": "address",
					"name": "to",
					"type": "address"
				}
			],
			"name": "OwnershipTransferred",
			"type": "event"
		},
		{
			"inputs": [],
			"name": "acceptOwnership",
			"outputs": [],
			"stateMutability": "nonpayable",
			"type": "function"
		},
		{
			"inputs": [
				{
					"internalType": "uint256",
					"name": "",
					"type": "uint256"
				},
				{
					"internalType": "bool",
					"name": "",
					"type": "bool"
				}
			],
			"name": "bet_totals",
			"outputs": [
				{
					"internalType": "uint256",
					"name": "",
					"type": "uint256"
				}
			],
			"stateMutability": "view",
			"type": "function"
		},
		{
			"inputs": [
				{
					"internalType": "address",
					"name": "",
					"type": "address"
				},
				{
					"internalType": "uint256",
					"name": "",
					"type": "uint256"
				}
			],
			"name": "bets_by_bettor",
			"outputs": [
				{
					"internalType": "address",
					"name": "bettor",
					"type": "address"
				},
				{
					"internalType": "uint256",
					"name": "staked",
					"type": "uint256"
				},
				{
					"internalType": "uint256",
					"name": "gameID",
					"type": "uint256"
				},
				{
					"internalType": "bool",
					"name": "home",
					"type": "bool"
				},
				{
					"internalType": "bool",
					"name": "initialized",
					"type": "bool"
				}
			],
			"stateMutability": "view",
			"type": "function"
		},
		{
			"inputs": [
				{
					"internalType": "uint256",
					"name": "",
					"type": "uint256"
				},
				{
					"internalType": "uint256",
					"name": "",
					"type": "uint256"
				}
			],
			"name": "bettors_by_game",
			"outputs": [
				{
					"internalType": "address",
					"name": "",
					"type": "address"
				}
			],
			"stateMutability": "view",
			"type": "function"
		},
		{
			"inputs": [
				{
					"internalType": "uint256",
					"name": "gameID",
					"type": "uint256"
				}
			],
			"name": "checkGameStatus",
			"outputs": [
				{
					"internalType": "bytes32",
					"name": "requestId",
					"type": "bytes32"
				}
			],
			"stateMutability": "nonpayable",
			"type": "function"
		},
		{
			"inputs": [
				{
					"internalType": "bytes32",
					"name": "_requestId",
					"type": "bytes32"
				},
				{
					"internalType": "int256",
					"name": "info",
					"type": "int256"
				}
			],
			"name": "fulfill",
			"outputs": [],
			"stateMutability": "nonpayable",
			"type": "function"
		},
		{
			"inputs": [
				{
					"internalType": "uint256",
					"name": "gameID",
					"type": "uint256"
				}
			],
			"name": "getBets",
			"outputs": [
				{
					"internalType": "uint256",
					"name": "",
					"type": "uint256"
				},
				{
					"internalType": "uint256",
					"name": "",
					"type": "uint256"
				}
			],
			"stateMutability": "view",
			"type": "function"
		},
		{
			"inputs": [],
			"name": "oracle",
			"outputs": [
				{
					"internalType": "address",
					"name": "",
					"type": "address"
				}
			],
			"stateMutability": "view",
			"type": "function"
		},
		{
			"inputs": [],
			"name": "owner",
			"outputs": [
				{
					"internalType": "address",
					"name": "",
					"type": "address"
				}
			],
			"stateMutability": "view",
			"type": "function"
		},
		{
			"inputs": [
				{
					"internalType": "uint256",
					"name": "gameID",
					"type": "uint256"
				},
				{
					"internalType": "bool",
					"name": "home",
					"type": "bool"
				}
			],
			"name": "placeBet",
			"outputs": [],
			"stateMutability": "payable",
			"type": "function"
		},
		{
			"inputs": [
				{
					"internalType": "uint256",
					"name": "gameID",
					"type": "uint256"
				},
				{
					"internalType": "bool",
					"name": "home",
					"type": "bool"
				}
			],
			"name": "reportResult",
			"outputs": [],
			"stateMutability": "nonpayable",
			"type": "function"
		},
		{
			"inputs": [
				{
					"internalType": "address",
					"name": "to",
					"type": "address"
				}
			],
			"name": "transferOwnership",
			"outputs": [],
			"stateMutability": "nonpayable",
			"type": "function"
		},
		{
			"inputs": [],
			"name": "volume",
			"outputs": [
				{
					"internalType": "uint256",
					"name": "",
					"type": "uint256"
				}
			],
			"stateMutability": "view",
			"type": "function"
		}
	]
}