{
  "contractName": "Betting",
  "abi": [
    {
      "inputs": [
        {
          "internalType": "address",
          "name": "tokenAddress",
          "type": "address"
        },
        {
          "internalType": "address",
          "name": "_oracle",
          "type": "address"
        }
      ],
      "stateMutability": "nonpayable",
      "type": "constructor"
    },
    {
      "inputs": [
        {
          "internalType": "string",
          "name": "",
          "type": "string"
        },
        {
          "internalType": "bool",
          "name": "",
          "type": "bool"
        }
      ],
      "name": "bet_totals",
      "outputs": [
        {
          "internalType": "uint256",
          "name": "",
          "type": "uint256"
        }
      ],
      "stateMutability": "view",
      "type": "function"
    },
    {
      "inputs": [
        {
          "internalType": "address",
          "name": "",
          "type": "address"
        },
        {
          "internalType": "string",
          "name": "",
          "type": "string"
        }
      ],
      "name": "bets_by_bettor",
      "outputs": [
        {
          "internalType": "address",
          "name": "bettor",
          "type": "address"
        },
        {
          "internalType": "uint256",
          "name": "staked",
          "type": "uint256"
        },
        {
          "internalType": "string",
          "name": "gameID",
          "type": "string"
        },
        {
          "internalType": "bool",
          "name": "home",
          "type": "bool"
        }
      ],
      "stateMutability": "view",
      "type": "function"
    },
    {
      "inputs": [],
      "name": "oracle",
      "outputs": [
        {
          "internalType": "address",
          "name": "",
          "type": "address"
        }
      ],
      "stateMutability": "view",
      "type": "function"
    },
    {
      "inputs": [
        {
          "internalType": "string",
          "name": "gameID",
          "type": "string"
        },
        {
          "internalType": "bool",
          "name": "home",
          "type": "bool"
        }
      ],
      "name": "placeBet",
      "outputs": [],
      "stateMutability": "payable",
      "type": "function"
    },
    {
      "inputs": [
        {
          "internalType": "string",
          "name": "gameID",
          "type": "string"
        }
      ],
      "name": "withdrawGain",
      "outputs": [],
      "stateMutability": "nonpayable",
      "type": "function"
    },
    {
      "inputs": [
        {
          "internalType": "string",
          "name": "gameID",
          "type": "string"
        },
        {
          "internalType": "bool",
          "name": "home",
          "type": "bool"
        }
      ],
      "name": "reportResult",
      "outputs": [],
      "stateMutability": "nonpayable",
      "type": "function"
    }
  ],
  "bytecode": "0x60806040523480156200001157600080fd5b5060405162001407380380620014078339818101604052810190620000379190620000e9565b806000806101000a81548173ffffffffffffffffffffffffffffffffffffffff021916908373ffffffffffffffffffffffffffffffffffffffff160217905550505062000130565b600080fd5b600073ffffffffffffffffffffffffffffffffffffffff82169050919050565b6000620000b18262000084565b9050919050565b620000c381620000a4565b8114620000cf57600080fd5b50565b600081519050620000e381620000b8565b92915050565b600080604083850312156200010357620001026200007f565b5b60006200011385828601620000d2565b92505060206200012685828601620000d2565b9150509250929050565b6112c780620001406000396000f3fe6080604052600436106100555760003560e01c806329655d8a1461005a5780635f559af8146100975780637dc0d1d0146100c0578063b99f0db0146100eb578063c215aa8414610107578063c3432fa314610147575b600080fd5b34801561006657600080fd5b50610081600480360381019061007c9190610a5a565b610170565b60405161008e9190610acf565b60405180910390f35b3480156100a357600080fd5b506100be60048036038101906100b99190610a5a565b6101ab565b005b3480156100cc57600080fd5b506100d56102aa565b6040516100e29190610b2b565b60405180910390f35b61010560048036038101906101009190610a5a565b6102ce565b005b34801561011357600080fd5b5061012e60048036038101906101299190610b72565b6104ac565b60405161013e9493929190610c5c565b60405180910390f35b34801561015357600080fd5b5061016e60048036038101906101699190610ca8565b6105b4565b005b600182805160208101820180518482526020830160208501208183528095505050505050602052806000526040600020600091509150505481565b3373ffffffffffffffffffffffffffffffffffffffff1660008054906101000a900473ffffffffffffffffffffffffffffffffffffffff1673ffffffffffffffffffffffffffffffffffffffff1614610239576040517f08c379a000000000000000000000000000000000000000000000000000000000815260040161023090610d63565b60405180910390fd5b600160038360405161024b9190610dbf565b908152602001604051809103902060006101000a81548160ff021916908315150217905550806002836040516102819190610dbf565b908152602001604051809103902060006101000a81548160ff0219169083151502179055505050565b60008054906101000a900473ffffffffffffffffffffffffffffffffffffffff1681565b600015156003836040516102e29190610dbf565b908152602001604051809103902060009054906101000a900460ff16151514610340576040517f08c379a000000000000000000000000000000000000000000000000000000000815260040161033790610e22565b60405180910390fd5b60405180608001604052803373ffffffffffffffffffffffffffffffffffffffff168152602001348152602001838152602001821515815250600460003373ffffffffffffffffffffffffffffffffffffffff1673ffffffffffffffffffffffffffffffffffffffff168152602001908152602001600020836040516103c69190610dbf565b908152602001604051809103902060008201518160000160006101000a81548173ffffffffffffffffffffffffffffffffffffffff021916908373ffffffffffffffffffffffffffffffffffffffff16021790555060208201518160010155604082015181600201908161043a919061104e565b5060608201518160030160006101000a81548160ff0219169083151502179055509050503460018360405161046f9190610dbf565b908152602001604051809103902060008315151515815260200190815260200160002060008282546104a1919061114f565b925050819055505050565b600460205281600052604060002081805160208101820180518482526020830160208501208183528095505050505050600091509150508060000160009054906101000a900473ffffffffffffffffffffffffffffffffffffffff169080600101549080600201805461051e90610e71565b80601f016020809104026020016040519081016040528092919081815260200182805461054a90610e71565b80156105975780601f1061056c57610100808354040283529160200191610597565b820191906000526020600020905b81548152906001019060200180831161057a57829003601f168201915b5050505050908060030160009054906101000a900460ff16905084565b600115156003826040516105c89190610dbf565b908152602001604051809103902060009054906101000a900460ff16151514610626576040517f08c379a000000000000000000000000000000000000000000000000000000000815260040161061d906111cf565b60405180910390fd5b60006002826040516106389190610dbf565b908152602001604051809103902060009054906101000a900460ff1690506000600460003373ffffffffffffffffffffffffffffffffffffffff1673ffffffffffffffffffffffffffffffffffffffff168152602001908152602001600020836040516106a59190610dbf565b90815260200160405180910390206040518060800160405290816000820160009054906101000a900473ffffffffffffffffffffffffffffffffffffffff1673ffffffffffffffffffffffffffffffffffffffff1673ffffffffffffffffffffffffffffffffffffffff1681526020016001820154815260200160028201805461072e90610e71565b80601f016020809104026020016040519081016040528092919081815260200182805461075a90610e71565b80156107a75780601f1061077c576101008083540402835291602001916107a7565b820191906000526020600020905b81548152906001019060200180831161078a57829003601f168201915b505050505081526020016003820160009054906101000a900460ff161515151581525050905060008215158260600151151503610876576001846040516107ee9190610dbf565b90815260200160405180910390206000841515151581526020019081526020016000205482602001516001866040516108279190610dbf565b9081526020016040518091039020600086151515151581526020019081526020016000205461085691906111ef565b6108609190611260565b826020015161086f919061114f565b905061087b565b600090505b3373ffffffffffffffffffffffffffffffffffffffff166108fc829081150290604051600060405180830381858888f193505050501580156108c1573d6000803e3d6000fd5b5050505050565b6000604051905090565b600080fd5b600080fd5b600080fd5b600080fd5b6000601f19601f8301169050919050565b7f4e487b7100000000000000000000000000000000000000000000000000000000600052604160045260246000fd5b61092f826108e6565b810181811067ffffffffffffffff8211171561094e5761094d6108f7565b5b80604052505050565b60006109616108c8565b905061096d8282610926565b919050565b600067ffffffffffffffff82111561098d5761098c6108f7565b5b610996826108e6565b9050602081019050919050565b82818337600083830152505050565b60006109c56109c084610972565b610957565b9050828152602081018484840111156109e1576109e06108e1565b5b6109ec8482856109a3565b509392505050565b600082601f830112610a0957610a086108dc565b5b8135610a198482602086016109b2565b91505092915050565b60008115159050919050565b610a3781610a22565b8114610a4257600080fd5b50565b600081359050610a5481610a2e565b92915050565b60008060408385031215610a7157610a706108d2565b5b600083013567ffffffffffffffff811115610a8f57610a8e6108d7565b5b610a9b858286016109f4565b9250506020610aac85828601610a45565b9150509250929050565b6000819050919050565b610ac981610ab6565b82525050565b6000602082019050610ae46000830184610ac0565b92915050565b600073ffffffffffffffffffffffffffffffffffffffff82169050919050565b6000610b1582610aea565b9050919050565b610b2581610b0a565b82525050565b6000602082019050610b406000830184610b1c565b92915050565b610b4f81610b0a565b8114610b5a57600080fd5b50565b600081359050610b6c81610b46565b92915050565b60008060408385031215610b8957610b886108d2565b5b6000610b9785828601610b5d565b925050602083013567ffffffffffffffff811115610bb857610bb76108d7565b5b610bc4858286016109f4565b9150509250929050565b600081519050919050565b600082825260208201905092915050565b60005b83811015610c08578082015181840152602081019050610bed565b60008484015250505050565b6000610c1f82610bce565b610c298185610bd9565b9350610c39818560208601610bea565b610c42816108e6565b840191505092915050565b610c5681610a22565b82525050565b6000608082019050610c716000830187610b1c565b610c7e6020830186610ac0565b8181036040830152610c908185610c14565b9050610c9f6060830184610c4d565b95945050505050565b600060208284031215610cbe57610cbd6108d2565b5b600082013567ffffffffffffffff811115610cdc57610cdb6108d7565b5b610ce8848285016109f4565b91505092915050565b7f4f6e6c7920746865204f7261636c652063616e2063616c6c207468697320667560008201527f6e6374696f6e0000000000000000000000000000000000000000000000000000602082015250565b6000610d4d602683610bd9565b9150610d5882610cf1565b604082019050919050565b60006020820190508181036000830152610d7c81610d40565b9050919050565b600081905092915050565b6000610d9982610bce565b610da38185610d83565b9350610db3818560208601610bea565b80840191505092915050565b6000610dcb8284610d8e565b915081905092915050565b7f5468652067616d65206973206f76657200000000000000000000000000000000600082015250565b6000610e0c601083610bd9565b9150610e1782610dd6565b602082019050919050565b60006020820190508181036000830152610e3b81610dff565b9050919050565b7f4e487b7100000000000000000000000000000000000000000000000000000000600052602260045260246000fd5b60006002820490506001821680610e8957607f821691505b602082108103610e9c57610e9b610e42565b5b50919050565b60008190508160005260206000209050919050565b60006020601f8301049050919050565b600082821b905092915050565b600060088302610f047fffffffffffffffffffffffffffffffffffffffffffffffffffffffffffffffff82610ec7565b610f0e8683610ec7565b95508019841693508086168417925050509392505050565b6000819050919050565b6000610f4b610f46610f4184610ab6565b610f26565b610ab6565b9050919050565b6000819050919050565b610f6583610f30565b610f79610f7182610f52565b848454610ed4565b825550505050565b600090565b610f8e610f81565b610f99818484610f5c565b505050565b5b81811015610fbd57610fb2600082610f86565b600181019050610f9f565b5050565b601f82111561100257610fd381610ea2565b610fdc84610eb7565b81016020851015610feb578190505b610fff610ff785610eb7565b830182610f9e565b50505b505050565b600082821c905092915050565b600061102560001984600802611007565b1980831691505092915050565b600061103e8383611014565b9150826002028217905092915050565b61105782610bce565b67ffffffffffffffff8111156110705761106f6108f7565b5b61107a8254610e71565b611085828285610fc1565b600060209050601f8311600181146110b857600084156110a6578287015190505b6110b08582611032565b865550611118565b601f1984166110c686610ea2565b60005b828110156110ee578489015182556001820191506020850194506020810190506110c9565b8683101561110b5784890151611107601f891682611014565b8355505b6001600288020188555050505b505050505050565b7f4e487b7100000000000000000000000000000000000000000000000000000000600052601160045260246000fd5b600061115a82610ab6565b915061116583610ab6565b925082820190508082111561117d5761117c611120565b5b92915050565b7f5468652067616d65206861736e27742068617070656e65642079657400000000600082015250565b60006111b9601c83610bd9565b91506111c482611183565b602082019050919050565b600060208201905081810360008301526111e8816111ac565b9050919050565b60006111fa82610ab6565b915061120583610ab6565b925082820261121381610ab6565b9150828204841483151761122a57611229611120565b5b5092915050565b7f4e487b7100000000000000000000000000000000000000000000000000000000600052601260045260246000fd5b600061126b82610ab6565b915061127683610ab6565b92508261128657611285611231565b5b82820490509291505056fea264697066735822122035c207e60fcf16a9badbfedb78e3577cf25bd5c856af8ee63fb30c3e815f4a2064736f6c63430008120033",
  "immutableReferences": {},
  "source": "// SPDX-License-Identifier: MIT\npragma solidity >=0.4.22 <0.9.0;\n\ncontract Betting {\n        address public oracle;\n        \n        mapping(string => mapping(bool => uint256)) public bet_totals;\n        // True in the case the home team wins, false in case of away\n        mapping(string => bool) private results; \n        // True in case that the game has been finished, false otherwise\n        mapping(string => bool) private game_finished;\n        mapping(address => mapping(string => Bet)) public bets_by_bettor;\n        \n\n        // constructor\n        constructor (address tokenAddress, address _oracle) {\n                oracle = _oracle;\n        }\n\n        struct Bet {\n                // represents address of person making bet\n                address bettor;\n                // represents the amount staked\n                uint256 staked;\n                // represents the game that is being bet on\n                string gameID;\n                // True if the bettor bet on the home team, false otherwise\n                bool home;\n        }\n\n        function placeBet (string memory gameID, bool home) external payable{\n                // confirm that the game hasn't happened already\n                require(game_finished[gameID] == false, \"The game is over\");\n                // flaw: this only allows the user to bet one side of the game\n                bets_by_bettor[msg.sender][gameID] = \n                        Bet(msg.sender, msg.value, gameID, home);\n                bet_totals[gameID][home] += msg.value;\n        }\n\n        function withdrawGain (string memory gameID) external {\n                // confirm that the game has already happened\n                require(game_finished[gameID] == true, \"The game hasn't happened yet\");\n                \n                bool winner = results[gameID];\n                Bet memory bet = bets_by_bettor[msg.sender][gameID];\n                // amount that the bettor wins\n                uint256 win_amount = 0;\n                if (bet.home == winner){\n                        win_amount = bet.staked + bet_totals[gameID][!winner] * bet.staked / bet_totals[gameID][winner];\n                }\n                else {\n                        win_amount = 0;\n                }\n                payable(msg.sender).transfer(win_amount);\n        }\n\n        function reportResult(string memory gameID, bool home) external {\n                require(oracle == msg.sender, \"Only the Oracle can call this function\");\n                game_finished[gameID] = true;\n                results[gameID] = home;\n        }\n}",
  "sourcePath": "/Users/ethan/Dev/COS471/desports/Smart Contracts/contracts/Betting.sol",
  "compiler": {
    "name": "solc",
    "version": "0.8.18+commit.87f61d96.Emscripten.clang"
  },
  "schemaVersion": "3.4.12",
  "updatedAt": "2023-04-30T20:20:37.908Z",
  "devdoc": {
    "kind": "dev",
    "methods": {},
    "version": 1
  },
  "userdoc": {
    "kind": "user",
    "methods": {},
    "version": 1
  }
}